{
  "_format": "hh-sol-artifact-1",
  "contractName": "ERC721PresetMinterPauserAutoId",
  "sourceName": "contracts/openzeppelin/contracts/token/ERC721/presets/ERC721PresetMinterPauserAutoId.sol",
  "abi": [
    {
      "inputs": [
        {
          "internalType": "string",
          "name": "name",
          "type": "string"
        },
        {
          "internalType": "string",
          "name": "symbol",
          "type": "string"
        },
        {
          "internalType": "string",
          "name": "baseTokenURI",
          "type": "string"
        }
      ],
      "stateMutability": "nonpayable",
      "type": "constructor"
    },
    {
      "anonymous": false,
      "inputs": [
        {
          "indexed": true,
          "internalType": "address",
          "name": "owner",
          "type": "address"
        },
        {
          "indexed": true,
          "internalType": "address",
          "name": "approved",
          "type": "address"
        },
        {
          "indexed": true,
          "internalType": "uint256",
          "name": "tokenId",
          "type": "uint256"
        }
      ],
      "name": "Approval",
      "type": "event"
    },
    {
      "anonymous": false,
      "inputs": [
        {
          "indexed": true,
          "internalType": "address",
          "name": "owner",
          "type": "address"
        },
        {
          "indexed": true,
          "internalType": "address",
          "name": "operator",
          "type": "address"
        },
        {
          "indexed": false,
          "internalType": "bool",
          "name": "approved",
          "type": "bool"
        }
      ],
      "name": "ApprovalForAll",
      "type": "event"
    },
    {
      "anonymous": false,
      "inputs": [
        {
          "indexed": false,
          "internalType": "address",
          "name": "account",
          "type": "address"
        }
      ],
      "name": "Paused",
      "type": "event"
    },
    {
      "anonymous": false,
      "inputs": [
        {
          "indexed": true,
          "internalType": "bytes32",
          "name": "role",
          "type": "bytes32"
        },
        {
          "indexed": true,
          "internalType": "bytes32",
          "name": "previousAdminRole",
          "type": "bytes32"
        },
        {
          "indexed": true,
          "internalType": "bytes32",
          "name": "newAdminRole",
          "type": "bytes32"
        }
      ],
      "name": "RoleAdminChanged",
      "type": "event"
    },
    {
      "anonymous": false,
      "inputs": [
        {
          "indexed": true,
          "internalType": "bytes32",
          "name": "role",
          "type": "bytes32"
        },
        {
          "indexed": true,
          "internalType": "address",
          "name": "account",
          "type": "address"
        },
        {
          "indexed": true,
          "internalType": "address",
          "name": "sender",
          "type": "address"
        }
      ],
      "name": "RoleGranted",
      "type": "event"
    },
    {
      "anonymous": false,
      "inputs": [
        {
          "indexed": true,
          "internalType": "bytes32",
          "name": "role",
          "type": "bytes32"
        },
        {
          "indexed": true,
          "internalType": "address",
          "name": "account",
          "type": "address"
        },
        {
          "indexed": true,
          "internalType": "address",
          "name": "sender",
          "type": "address"
        }
      ],
      "name": "RoleRevoked",
      "type": "event"
    },
    {
      "anonymous": false,
      "inputs": [
        {
          "indexed": true,
          "internalType": "address",
          "name": "from",
          "type": "address"
        },
        {
          "indexed": true,
          "internalType": "address",
          "name": "to",
          "type": "address"
        },
        {
          "indexed": true,
          "internalType": "uint256",
          "name": "tokenId",
          "type": "uint256"
        }
      ],
      "name": "Transfer",
      "type": "event"
    },
    {
      "anonymous": false,
      "inputs": [
        {
          "indexed": false,
          "internalType": "address",
          "name": "account",
          "type": "address"
        }
      ],
      "name": "Unpaused",
      "type": "event"
    },
    {
      "inputs": [],
      "name": "DEFAULT_ADMIN_ROLE",
      "outputs": [
        {
          "internalType": "bytes32",
          "name": "",
          "type": "bytes32"
        }
      ],
      "stateMutability": "view",
      "type": "function"
    },
    {
      "inputs": [],
      "name": "MINTER_ROLE",
      "outputs": [
        {
          "internalType": "bytes32",
          "name": "",
          "type": "bytes32"
        }
      ],
      "stateMutability": "view",
      "type": "function"
    },
    {
      "inputs": [],
      "name": "PAUSER_ROLE",
      "outputs": [
        {
          "internalType": "bytes32",
          "name": "",
          "type": "bytes32"
        }
      ],
      "stateMutability": "view",
      "type": "function"
    },
    {
      "inputs": [
        {
          "internalType": "address",
          "name": "to",
          "type": "address"
        },
        {
          "internalType": "uint256",
          "name": "tokenId",
          "type": "uint256"
        }
      ],
      "name": "approve",
      "outputs": [],
      "stateMutability": "nonpayable",
      "type": "function"
    },
    {
      "inputs": [
        {
          "internalType": "address",
          "name": "owner",
          "type": "address"
        }
      ],
      "name": "balanceOf",
      "outputs": [
        {
          "internalType": "uint256",
          "name": "",
          "type": "uint256"
        }
      ],
      "stateMutability": "view",
      "type": "function"
    },
    {
      "inputs": [
        {
          "internalType": "uint256",
          "name": "tokenId",
          "type": "uint256"
        }
      ],
      "name": "burn",
      "outputs": [],
      "stateMutability": "nonpayable",
      "type": "function"
    },
    {
      "inputs": [
        {
          "internalType": "uint256",
          "name": "tokenId",
          "type": "uint256"
        }
      ],
      "name": "getApproved",
      "outputs": [
        {
          "internalType": "address",
          "name": "",
          "type": "address"
        }
      ],
      "stateMutability": "view",
      "type": "function"
    },
    {
      "inputs": [
        {
          "internalType": "bytes32",
          "name": "role",
          "type": "bytes32"
        }
      ],
      "name": "getRoleAdmin",
      "outputs": [
        {
          "internalType": "bytes32",
          "name": "",
          "type": "bytes32"
        }
      ],
      "stateMutability": "view",
      "type": "function"
    },
    {
      "inputs": [
        {
          "internalType": "bytes32",
          "name": "role",
          "type": "bytes32"
        },
        {
          "internalType": "uint256",
          "name": "index",
          "type": "uint256"
        }
      ],
      "name": "getRoleMember",
      "outputs": [
        {
          "internalType": "address",
          "name": "",
          "type": "address"
        }
      ],
      "stateMutability": "view",
      "type": "function"
    },
    {
      "inputs": [
        {
          "internalType": "bytes32",
          "name": "role",
          "type": "bytes32"
        }
      ],
      "name": "getRoleMemberCount",
      "outputs": [
        {
          "internalType": "uint256",
          "name": "",
          "type": "uint256"
        }
      ],
      "stateMutability": "view",
      "type": "function"
    },
    {
      "inputs": [
        {
          "internalType": "bytes32",
          "name": "role",
          "type": "bytes32"
        },
        {
          "internalType": "address",
          "name": "account",
          "type": "address"
        }
      ],
      "name": "grantRole",
      "outputs": [],
      "stateMutability": "nonpayable",
      "type": "function"
    },
    {
      "inputs": [
        {
          "internalType": "bytes32",
          "name": "role",
          "type": "bytes32"
        },
        {
          "internalType": "address",
          "name": "account",
          "type": "address"
        }
      ],
      "name": "hasRole",
      "outputs": [
        {
          "internalType": "bool",
          "name": "",
          "type": "bool"
        }
      ],
      "stateMutability": "view",
      "type": "function"
    },
    {
      "inputs": [
        {
          "internalType": "address",
          "name": "owner",
          "type": "address"
        },
        {
          "internalType": "address",
          "name": "operator",
          "type": "address"
        }
      ],
      "name": "isApprovedForAll",
      "outputs": [
        {
          "internalType": "bool",
          "name": "",
          "type": "bool"
        }
      ],
      "stateMutability": "view",
      "type": "function"
    },
    {
      "inputs": [
        {
          "internalType": "address",
          "name": "to",
          "type": "address"
        }
      ],
      "name": "mint",
      "outputs": [],
      "stateMutability": "nonpayable",
      "type": "function"
    },
    {
      "inputs": [],
      "name": "name",
      "outputs": [
        {
          "internalType": "string",
          "name": "",
          "type": "string"
        }
      ],
      "stateMutability": "view",
      "type": "function"
    },
    {
      "inputs": [
        {
          "internalType": "uint256",
          "name": "tokenId",
          "type": "uint256"
        }
      ],
      "name": "ownerOf",
      "outputs": [
        {
          "internalType": "address",
          "name": "",
          "type": "address"
        }
      ],
      "stateMutability": "view",
      "type": "function"
    },
    {
      "inputs": [],
      "name": "pause",
      "outputs": [],
      "stateMutability": "nonpayable",
      "type": "function"
    },
    {
      "inputs": [],
      "name": "paused",
      "outputs": [
        {
          "internalType": "bool",
          "name": "",
          "type": "bool"
        }
      ],
      "stateMutability": "view",
      "type": "function"
    },
    {
      "inputs": [
        {
          "internalType": "bytes32",
          "name": "role",
          "type": "bytes32"
        },
        {
          "internalType": "address",
          "name": "account",
          "type": "address"
        }
      ],
      "name": "renounceRole",
      "outputs": [],
      "stateMutability": "nonpayable",
      "type": "function"
    },
    {
      "inputs": [
        {
          "internalType": "bytes32",
          "name": "role",
          "type": "bytes32"
        },
        {
          "internalType": "address",
          "name": "account",
          "type": "address"
        }
      ],
      "name": "revokeRole",
      "outputs": [],
      "stateMutability": "nonpayable",
      "type": "function"
    },
    {
      "inputs": [
        {
          "internalType": "address",
          "name": "from",
          "type": "address"
        },
        {
          "internalType": "address",
          "name": "to",
          "type": "address"
        },
        {
          "internalType": "uint256",
          "name": "tokenId",
          "type": "uint256"
        }
      ],
      "name": "safeTransferFrom",
      "outputs": [],
      "stateMutability": "nonpayable",
      "type": "function"
    },
    {
      "inputs": [
        {
          "internalType": "address",
          "name": "from",
          "type": "address"
        },
        {
          "internalType": "address",
          "name": "to",
          "type": "address"
        },
        {
          "internalType": "uint256",
          "name": "tokenId",
          "type": "uint256"
        },
        {
          "internalType": "bytes",
          "name": "_data",
          "type": "bytes"
        }
      ],
      "name": "safeTransferFrom",
      "outputs": [],
      "stateMutability": "nonpayable",
      "type": "function"
    },
    {
      "inputs": [
        {
          "internalType": "address",
          "name": "operator",
          "type": "address"
        },
        {
          "internalType": "bool",
          "name": "approved",
          "type": "bool"
        }
      ],
      "name": "setApprovalForAll",
      "outputs": [],
      "stateMutability": "nonpayable",
      "type": "function"
    },
    {
      "inputs": [
        {
          "internalType": "bytes4",
          "name": "interfaceId",
          "type": "bytes4"
        }
      ],
      "name": "supportsInterface",
      "outputs": [
        {
          "internalType": "bool",
          "name": "",
          "type": "bool"
        }
      ],
      "stateMutability": "view",
      "type": "function"
    },
    {
      "inputs": [],
      "name": "symbol",
      "outputs": [
        {
          "internalType": "string",
          "name": "",
          "type": "string"
        }
      ],
      "stateMutability": "view",
      "type": "function"
    },
    {
      "inputs": [
        {
          "internalType": "uint256",
          "name": "index",
          "type": "uint256"
        }
      ],
      "name": "tokenByIndex",
      "outputs": [
        {
          "internalType": "uint256",
          "name": "",
          "type": "uint256"
        }
      ],
      "stateMutability": "view",
      "type": "function"
    },
    {
      "inputs": [
        {
          "internalType": "address",
          "name": "owner",
          "type": "address"
        },
        {
          "internalType": "uint256",
          "name": "index",
          "type": "uint256"
        }
      ],
      "name": "tokenOfOwnerByIndex",
      "outputs": [
        {
          "internalType": "uint256",
          "name": "",
          "type": "uint256"
        }
      ],
      "stateMutability": "view",
      "type": "function"
    },
    {
      "inputs": [
        {
          "internalType": "uint256",
          "name": "tokenId",
          "type": "uint256"
        }
      ],
      "name": "tokenURI",
      "outputs": [
        {
          "internalType": "string",
          "name": "",
          "type": "string"
        }
      ],
      "stateMutability": "view",
      "type": "function"
    },
    {
      "inputs": [],
      "name": "totalSupply",
      "outputs": [
        {
          "internalType": "uint256",
          "name": "",
          "type": "uint256"
        }
      ],
      "stateMutability": "view",
      "type": "function"
    },
    {
      "inputs": [
        {
          "internalType": "address",
          "name": "from",
          "type": "address"
        },
        {
          "internalType": "address",
          "name": "to",
          "type": "address"
        },
        {
          "internalType": "uint256",
          "name": "tokenId",
          "type": "uint256"
        }
      ],
      "name": "transferFrom",
      "outputs": [],
      "stateMutability": "nonpayable",
      "type": "function"
    },
    {
      "inputs": [],
      "name": "unpause",
      "outputs": [],
      "stateMutability": "nonpayable",
      "type": "function"
    }
  ],
  "bytecode": "0x60806040523480156200001157600080fd5b50604051620050cb380380620050cb833981810160405281019062000037919062000564565b828281600290816200004a919062000868565b5080600390816200005c919062000868565b5050506000600c60006101000a81548160ff02191690831515021790555080600e90816200008b919062000868565b50620000b06000801b620000a46200013b60201b60201c565b6200014360201b60201c565b620000f17f9f2df0fed2c77648de5860a4cc508cd0818c85b8b8a1ab4ceeef8d981c8956a6620000e56200013b60201b60201c565b6200014360201b60201c565b620001327f65d7a28e3265b37a6474929f336521b332c1681b933f6cb9f3376673440d862a620001266200013b60201b60201c565b6200014360201b60201c565b5050506200094f565b600033905090565b6200015582826200015960201b60201c565b5050565b620001708282620001a160201b620011af1760201c565b6200019c81600160008581526020019081526020016000206200029260201b6200128f1790919060201c565b505050565b620001b38282620002ca60201b60201c565b6200028e57600160008084815260200190815260200160002060000160008373ffffffffffffffffffffffffffffffffffffffff1673ffffffffffffffffffffffffffffffffffffffff16815260200190815260200160002060006101000a81548160ff021916908315150217905550620002336200013b60201b60201c565b73ffffffffffffffffffffffffffffffffffffffff168173ffffffffffffffffffffffffffffffffffffffff16837f2f8788117e7eff1d82e926ec794901d17c78024a50270940304540a733656f0d60405160405180910390a45b5050565b6000620002c2836000018373ffffffffffffffffffffffffffffffffffffffff1660001b6200033460201b60201c565b905092915050565b600080600084815260200190815260200160002060000160008373ffffffffffffffffffffffffffffffffffffffff1673ffffffffffffffffffffffffffffffffffffffff16815260200190815260200160002060009054906101000a900460ff16905092915050565b6000620003488383620003ae60201b60201c565b620003a3578260000182908060018154018082558091505060019003906000526020600020016000909190919091505582600001805490508360010160008481526020019081526020016000208190555060019050620003a8565b600090505b92915050565b600080836001016000848152602001908152602001600020541415905092915050565b6000604051905090565b600080fd5b600080fd5b600080fd5b600080fd5b6000601f19601f8301169050919050565b7f4e487b7100000000000000000000000000000000000000000000000000000000600052604160045260246000fd5b6200043a82620003ef565b810181811067ffffffffffffffff821117156200045c576200045b62000400565b5b80604052505050565b600062000471620003d1565b90506200047f82826200042f565b919050565b600067ffffffffffffffff821115620004a257620004a162000400565b5b620004ad82620003ef565b9050602081019050919050565b60005b83811015620004da578082015181840152602081019050620004bd565b60008484015250505050565b6000620004fd620004f78462000484565b62000465565b9050828152602081018484840111156200051c576200051b620003ea565b5b62000529848285620004ba565b509392505050565b600082601f830112620005495762000548620003e5565b5b81516200055b848260208601620004e6565b91505092915050565b60008060006060848603121562000580576200057f620003db565b5b600084015167ffffffffffffffff811115620005a157620005a0620003e0565b5b620005af8682870162000531565b935050602084015167ffffffffffffffff811115620005d357620005d2620003e0565b5b620005e18682870162000531565b925050604084015167ffffffffffffffff811115620006055762000604620003e0565b5b620006138682870162000531565b9150509250925092565b600081519050919050565b7f4e487b7100000000000000000000000000000000000000000000000000000000600052602260045260246000fd5b600060028204905060018216806200067057607f821691505b60208210810362000686576200068562000628565b5b50919050565b60008190508160005260206000209050919050565b60006020601f8301049050919050565b600082821b905092915050565b600060088302620006f07fffffffffffffffffffffffffffffffffffffffffffffffffffffffffffffffff82620006b1565b620006fc8683620006b1565b95508019841693508086168417925050509392505050565b6000819050919050565b6000819050919050565b600062000749620007436200073d8462000714565b6200071e565b62000714565b9050919050565b6000819050919050565b620007658362000728565b6200077d620007748262000750565b848454620006be565b825550505050565b600090565b6200079462000785565b620007a18184846200075a565b505050565b5b81811015620007c957620007bd6000826200078a565b600181019050620007a7565b5050565b601f8211156200081857620007e2816200068c565b620007ed84620006a1565b81016020851015620007fd578190505b620008156200080c85620006a1565b830182620007a6565b50505b505050565b600082821c905092915050565b60006200083d600019846008026200081d565b1980831691505092915050565b60006200085883836200082a565b9150826002028217905092915050565b62000873826200061d565b67ffffffffffffffff8111156200088f576200088e62000400565b5b6200089b825462000657565b620008a8828285620007cd565b600060209050601f831160018114620008e05760008415620008cb578287015190505b620008d785826200084a565b86555062000947565b601f198416620008f0866200068c565b60005b828110156200091a57848901518255600182019150602085019450602081019050620008f3565b868310156200093a578489015162000936601f8916826200082a565b8355505b6001600288020188555050505b505050505050565b61476c806200095f6000396000f3fe608060405234801561001057600080fd5b50600436106101e55760003560e01c80636352211e1161010f578063a22cb465116100a2578063d539139311610071578063d5391393146105a0578063d547741f146105be578063e63ab1e9146105da578063e985e9c5146105f8576101e5565b8063a22cb46514610508578063b88d4fde14610524578063c87b56dd14610540578063ca15c87314610570576101e5565b80639010d07c116100de5780639010d07c1461046c57806391d148541461049c57806395d89b41146104cc578063a217fddf146104ea576101e5565b80636352211e146103e65780636a6278421461041657806370a08231146104325780638456cb5914610462576101e5565b80632f2ff15d1161018757806342842e0e1161015657806342842e0e1461036057806342966c681461037c5780634f6ccce7146103985780635c975abb146103c8576101e5565b80632f2ff15d146102ee5780632f745c591461030a57806336568abe1461033a5780633f4ba83a14610356576101e5565b8063095ea7b3116101c3578063095ea7b31461026857806318160ddd1461028457806323b872dd146102a2578063248a9ca3146102be576101e5565b806301ffc9a7146101ea57806306fdde031461021a578063081812fc14610238575b600080fd5b61020460048036038101906101ff9190612ecf565b610628565b6040516102119190612f17565b60405180910390f35b61022261063a565b60405161022f9190612fc2565b60405180910390f35b610252600480360381019061024d919061301a565b6106cc565b60405161025f9190613088565b60405180910390f35b610282600480360381019061027d91906130cf565b610751565b005b61028c610868565b604051610299919061311e565b60405180910390f35b6102bc60048036038101906102b79190613139565b610875565b005b6102d860048036038101906102d391906131c2565b6108d5565b6040516102e591906131fe565b60405180910390f35b61030860048036038101906103039190613219565b6108f4565b005b610324600480360381019061031f91906130cf565b61091d565b604051610331919061311e565b60405180910390f35b610354600480360381019061034f9190613219565b6109c2565b005b61035e610a45565b005b61037a60048036038101906103759190613139565b610abf565b005b6103966004803603810190610391919061301a565b610adf565b005b6103b260048036038101906103ad919061301a565b610b3b565b6040516103bf919061311e565b60405180910390f35b6103d0610bac565b6040516103dd9190612f17565b60405180910390f35b61040060048036038101906103fb919061301a565b610bc3565b60405161040d9190613088565b60405180910390f35b610430600480360381019061042b9190613259565b610c74565b005b61044c60048036038101906104479190613259565b610d04565b604051610459919061311e565b60405180910390f35b61046a610dbb565b005b61048660048036038101906104819190613286565b610e35565b6040516104939190613088565b60405180910390f35b6104b660048036038101906104b19190613219565b610e64565b6040516104c39190612f17565b60405180910390f35b6104d4610ece565b6040516104e19190612fc2565b60405180910390f35b6104f2610f60565b6040516104ff91906131fe565b60405180910390f35b610522600480360381019061051d91906132f2565b610f67565b005b61053e60048036038101906105399190613467565b610f7d565b005b61055a6004803603810190610555919061301a565b610fdf565b6040516105679190612fc2565b60405180910390f35b61058a600480360381019061058591906131c2565b611086565b604051610597919061311e565b60405180910390f35b6105a86110aa565b6040516105b591906131fe565b60405180910390f35b6105d860048036038101906105d39190613219565b6110ce565b005b6105e26110f7565b6040516105ef91906131fe565b60405180910390f35b610612600480360381019061060d91906134ea565b61111b565b60405161061f9190612f17565b60405180910390f35b6000610633826112bf565b9050919050565b60606002805461064990613559565b80601f016020809104026020016040519081016040528092919081815260200182805461067590613559565b80156106c25780601f10610697576101008083540402835291602001916106c2565b820191906000526020600020905b8154815290600101906020018083116106a557829003601f168201915b5050505050905090565b60006106d782611339565b610716576040517f08c379a000000000000000000000000000000000000000000000000000000000815260040161070d906135fc565b60405180910390fd5b6006600083815260200190815260200160002060009054906101000a900473ffffffffffffffffffffffffffffffffffffffff169050919050565b600061075c82610bc3565b90508073ffffffffffffffffffffffffffffffffffffffff168373ffffffffffffffffffffffffffffffffffffffff16036107cc576040517f08c379a00000000000000000000000000000000000000000000000000000000081526004016107c39061368e565b60405180910390fd5b8073ffffffffffffffffffffffffffffffffffffffff166107eb6113a5565b73ffffffffffffffffffffffffffffffffffffffff16148061081a5750610819816108146113a5565b61111b565b5b610859576040517f08c379a000000000000000000000000000000000000000000000000000000000815260040161085090613720565b60405180910390fd5b61086383836113ad565b505050565b6000600a80549050905090565b6108866108806113a5565b82611466565b6108c5576040517f08c379a00000000000000000000000000000000000000000000000000000000081526004016108bc906137b2565b60405180910390fd5b6108d0838383611544565b505050565b6000806000838152602001908152602001600020600101549050919050565b6108fd826108d5565b61090e816109096113a5565b61179f565b610918838361183c565b505050565b600061092883610d04565b8210610969576040517f08c379a000000000000000000000000000000000000000000000000000000000815260040161096090613844565b60405180910390fd5b600860008473ffffffffffffffffffffffffffffffffffffffff1673ffffffffffffffffffffffffffffffffffffffff168152602001908152602001600020600083815260200190815260200160002054905092915050565b6109ca6113a5565b73ffffffffffffffffffffffffffffffffffffffff168173ffffffffffffffffffffffffffffffffffffffff1614610a37576040517f08c379a0000000000000000000000000000000000000000000000000000000008152600401610a2e906138d6565b60405180910390fd5b610a418282611870565b5050565b610a767f65d7a28e3265b37a6474929f336521b332c1681b933f6cb9f3376673440d862a610a716113a5565b610e64565b610ab5576040517f08c379a0000000000000000000000000000000000000000000000000000000008152600401610aac90613968565b60405180910390fd5b610abd6118a4565b565b610ada83838360405180602001604052806000815250610f7d565b505050565b610af0610aea6113a5565b82611466565b610b2f576040517f08c379a0000000000000000000000000000000000000000000000000000000008152600401610b26906139fa565b60405180910390fd5b610b3881611946565b50565b6000610b45610868565b8210610b86576040517f08c379a0000000000000000000000000000000000000000000000000000000008152600401610b7d90613a8c565b60405180910390fd5b600a8281548110610b9a57610b99613aac565b5b90600052602060002001549050919050565b6000600c60009054906101000a900460ff16905090565b6000806004600084815260200190815260200160002060009054906101000a900473ffffffffffffffffffffffffffffffffffffffff169050600073ffffffffffffffffffffffffffffffffffffffff168173ffffffffffffffffffffffffffffffffffffffff1603610c6b576040517f08c379a0000000000000000000000000000000000000000000000000000000008152600401610c6290613b4d565b60405180910390fd5b80915050919050565b610ca57f9f2df0fed2c77648de5860a4cc508cd0818c85b8b8a1ab4ceeef8d981c8956a6610ca06113a5565b610e64565b610ce4576040517f08c379a0000000000000000000000000000000000000000000000000000000008152600401610cdb90613bdf565b60405180910390fd5b610cf781610cf2600d611a57565b611a65565b610d01600d611c32565b50565b60008073ffffffffffffffffffffffffffffffffffffffff168273ffffffffffffffffffffffffffffffffffffffff1603610d74576040517f08c379a0000000000000000000000000000000000000000000000000000000008152600401610d6b90613c71565b60405180910390fd5b600560008373ffffffffffffffffffffffffffffffffffffffff1673ffffffffffffffffffffffffffffffffffffffff168152602001908152602001600020549050919050565b610dec7f65d7a28e3265b37a6474929f336521b332c1681b933f6cb9f3376673440d862a610de76113a5565b610e64565b610e2b576040517f08c379a0000000000000000000000000000000000000000000000000000000008152600401610e2290613d03565b60405180910390fd5b610e33611c48565b565b6000610e5c8260016000868152602001908152602001600020611ceb90919063ffffffff16565b905092915050565b600080600084815260200190815260200160002060000160008373ffffffffffffffffffffffffffffffffffffffff1673ffffffffffffffffffffffffffffffffffffffff16815260200190815260200160002060009054906101000a900460ff16905092915050565b606060038054610edd90613559565b80601f0160208091040260200160405190810160405280929190818152602001828054610f0990613559565b8015610f565780601f10610f2b57610100808354040283529160200191610f56565b820191906000526020600020905b815481529060010190602001808311610f3957829003601f168201915b5050505050905090565b6000801b81565b610f79610f726113a5565b8383611d05565b5050565b610f8e610f886113a5565b83611466565b610fcd576040517f08c379a0000000000000000000000000000000000000000000000000000000008152600401610fc4906137b2565b60405180910390fd5b610fd984848484611e71565b50505050565b6060610fea82611339565b611029576040517f08c379a000000000000000000000000000000000000000000000000000000000815260040161102090613d95565b60405180910390fd5b6000611033611ecd565b90506000815111611053576040518060200160405280600081525061107e565b8061105d84611f5f565b60405160200161106e929190613df1565b6040516020818303038152906040525b915050919050565b60006110a3600160008481526020019081526020016000206120bf565b9050919050565b7f9f2df0fed2c77648de5860a4cc508cd0818c85b8b8a1ab4ceeef8d981c8956a681565b6110d7826108d5565b6110e8816110e36113a5565b61179f565b6110f28383611870565b505050565b7f65d7a28e3265b37a6474929f336521b332c1681b933f6cb9f3376673440d862a81565b6000600760008473ffffffffffffffffffffffffffffffffffffffff1673ffffffffffffffffffffffffffffffffffffffff16815260200190815260200160002060008373ffffffffffffffffffffffffffffffffffffffff1673ffffffffffffffffffffffffffffffffffffffff16815260200190815260200160002060009054906101000a900460ff16905092915050565b6111b98282610e64565b61128b57600160008084815260200190815260200160002060000160008373ffffffffffffffffffffffffffffffffffffffff1673ffffffffffffffffffffffffffffffffffffffff16815260200190815260200160002060006101000a81548160ff0219169083151502179055506112306113a5565b73ffffffffffffffffffffffffffffffffffffffff168173ffffffffffffffffffffffffffffffffffffffff16837f2f8788117e7eff1d82e926ec794901d17c78024a50270940304540a733656f0d60405160405180910390a45b5050565b60006112b7836000018373ffffffffffffffffffffffffffffffffffffffff1660001b6120d4565b905092915050565b60007f780e9d63000000000000000000000000000000000000000000000000000000007bffffffffffffffffffffffffffffffffffffffffffffffffffffffff1916827bffffffffffffffffffffffffffffffffffffffffffffffffffffffff19161480611332575061133182612144565b5b9050919050565b60008073ffffffffffffffffffffffffffffffffffffffff166004600084815260200190815260200160002060009054906101000a900473ffffffffffffffffffffffffffffffffffffffff1673ffffffffffffffffffffffffffffffffffffffff1614159050919050565b600033905090565b816006600083815260200190815260200160002060006101000a81548173ffffffffffffffffffffffffffffffffffffffff021916908373ffffffffffffffffffffffffffffffffffffffff160217905550808273ffffffffffffffffffffffffffffffffffffffff1661142083610bc3565b73ffffffffffffffffffffffffffffffffffffffff167f8c5be1e5ebec7d5bd14f71427d1e84f3dd0314c0f7b2291e5b200ac8c7c3b92560405160405180910390a45050565b600061147182611339565b6114b0576040517f08c379a00000000000000000000000000000000000000000000000000000000081526004016114a790613e87565b60405180910390fd5b60006114bb83610bc3565b90508073ffffffffffffffffffffffffffffffffffffffff168473ffffffffffffffffffffffffffffffffffffffff16148061152a57508373ffffffffffffffffffffffffffffffffffffffff16611512846106cc565b73ffffffffffffffffffffffffffffffffffffffff16145b8061153b575061153a818561111b565b5b91505092915050565b8273ffffffffffffffffffffffffffffffffffffffff1661156482610bc3565b73ffffffffffffffffffffffffffffffffffffffff16146115ba576040517f08c379a00000000000000000000000000000000000000000000000000000000081526004016115b190613f19565b60405180910390fd5b600073ffffffffffffffffffffffffffffffffffffffff168273ffffffffffffffffffffffffffffffffffffffff1603611629576040517f08c379a000000000000000000000000000000000000000000000000000000000815260040161162090613fab565b60405180910390fd5b611634838383612226565b61163f6000826113ad565b6001600560008573ffffffffffffffffffffffffffffffffffffffff1673ffffffffffffffffffffffffffffffffffffffff168152602001908152602001600020600082825461168f9190613ffa565b925050819055506001600560008473ffffffffffffffffffffffffffffffffffffffff1673ffffffffffffffffffffffffffffffffffffffff16815260200190815260200160002060008282546116e6919061402e565b92505081905550816004600083815260200190815260200160002060006101000a81548173ffffffffffffffffffffffffffffffffffffffff021916908373ffffffffffffffffffffffffffffffffffffffff160217905550808273ffffffffffffffffffffffffffffffffffffffff168473ffffffffffffffffffffffffffffffffffffffff167fddf252ad1be2c89b69c2b068fc378daa952ba7f163c4a11628f55a4df523b3ef60405160405180910390a4505050565b6117a98282610e64565b611838576117ce8173ffffffffffffffffffffffffffffffffffffffff166014612236565b6117dc8360001c6020612236565b6040516020016117ed9291906140fa565b6040516020818303038152906040526040517f08c379a000000000000000000000000000000000000000000000000000000000815260040161182f9190612fc2565b60405180910390fd5b5050565b61184682826111af565b61186b816001600085815260200190815260200160002061128f90919063ffffffff16565b505050565b61187a8282612472565b61189f816001600085815260200190815260200160002061255390919063ffffffff16565b505050565b6118ac610bac565b6118eb576040517f08c379a00000000000000000000000000000000000000000000000000000000081526004016118e290614180565b60405180910390fd5b6000600c60006101000a81548160ff0219169083151502179055507f5db9ee0a495bf2e6ff9c91a7834c1ba4fdd244a5e8aa4e537bd38aeae4b073aa61192f6113a5565b60405161193c9190613088565b60405180910390a1565b600061195182610bc3565b905061195f81600084612226565b61196a6000836113ad565b6001600560008373ffffffffffffffffffffffffffffffffffffffff1673ffffffffffffffffffffffffffffffffffffffff16815260200190815260200160002060008282546119ba9190613ffa565b925050819055506004600083815260200190815260200160002060006101000a81549073ffffffffffffffffffffffffffffffffffffffff021916905581600073ffffffffffffffffffffffffffffffffffffffff168273ffffffffffffffffffffffffffffffffffffffff167fddf252ad1be2c89b69c2b068fc378daa952ba7f163c4a11628f55a4df523b3ef60405160405180910390a45050565b600081600001549050919050565b600073ffffffffffffffffffffffffffffffffffffffff168273ffffffffffffffffffffffffffffffffffffffff1603611ad4576040517f08c379a0000000000000000000000000000000000000000000000000000000008152600401611acb906141ec565b60405180910390fd5b611add81611339565b15611b1d576040517f08c379a0000000000000000000000000000000000000000000000000000000008152600401611b1490614258565b60405180910390fd5b611b2960008383612226565b6001600560008473ffffffffffffffffffffffffffffffffffffffff1673ffffffffffffffffffffffffffffffffffffffff1681526020019081526020016000206000828254611b79919061402e565b92505081905550816004600083815260200190815260200160002060006101000a81548173ffffffffffffffffffffffffffffffffffffffff021916908373ffffffffffffffffffffffffffffffffffffffff160217905550808273ffffffffffffffffffffffffffffffffffffffff16600073ffffffffffffffffffffffffffffffffffffffff167fddf252ad1be2c89b69c2b068fc378daa952ba7f163c4a11628f55a4df523b3ef60405160405180910390a45050565b6001816000016000828254019250508190555050565b611c50610bac565b15611c90576040517f08c379a0000000000000000000000000000000000000000000000000000000008152600401611c87906142c4565b60405180910390fd5b6001600c60006101000a81548160ff0219169083151502179055507f62e78cea01bee320cd4e420270b5ea74000d11b0c9f74754ebdbfc544b05a258611cd46113a5565b604051611ce19190613088565b60405180910390a1565b6000611cfa8360000183612583565b60001c905092915050565b8173ffffffffffffffffffffffffffffffffffffffff168373ffffffffffffffffffffffffffffffffffffffff1603611d73576040517f08c379a0000000000000000000000000000000000000000000000000000000008152600401611d6a90614330565b60405180910390fd5b80600760008573ffffffffffffffffffffffffffffffffffffffff1673ffffffffffffffffffffffffffffffffffffffff16815260200190815260200160002060008473ffffffffffffffffffffffffffffffffffffffff1673ffffffffffffffffffffffffffffffffffffffff16815260200190815260200160002060006101000a81548160ff0219169083151502179055508173ffffffffffffffffffffffffffffffffffffffff168373ffffffffffffffffffffffffffffffffffffffff167f17307eab39ab6107e8899845ad3d59bd9653f200f220920489ca2b5937696c3183604051611e649190612f17565b60405180910390a3505050565b611e7c848484611544565b611e88848484846125ae565b611ec7576040517f08c379a0000000000000000000000000000000000000000000000000000000008152600401611ebe906143c2565b60405180910390fd5b50505050565b6060600e8054611edc90613559565b80601f0160208091040260200160405190810160405280929190818152602001828054611f0890613559565b8015611f555780601f10611f2a57610100808354040283529160200191611f55565b820191906000526020600020905b815481529060010190602001808311611f3857829003601f168201915b5050505050905090565b606060008203611fa6576040518060400160405280600181526020017f300000000000000000000000000000000000000000000000000000000000000081525090506120ba565b600082905060005b60008214611fd8578080611fc1906143e2565b915050600a82611fd19190614459565b9150611fae565b60008167ffffffffffffffff811115611ff457611ff361333c565b5b6040519080825280601f01601f1916602001820160405280156120265781602001600182028036833780820191505090505b5090505b600085146120b35760018261203f9190613ffa565b9150600a8561204e919061448a565b603061205a919061402e565b60f81b8183815181106120705761206f613aac565b5b60200101907effffffffffffffffffffffffffffffffffffffffffffffffffffffffffffff1916908160001a905350600a856120ac9190614459565b945061202a565b8093505050505b919050565b60006120cd82600001612735565b9050919050565b60006120e08383612746565b61213957826000018290806001815401808255809150506001900390600052602060002001600090919091909150558260000180549050836001016000848152602001908152602001600020819055506001905061213e565b600090505b92915050565b60007f80ac58cd000000000000000000000000000000000000000000000000000000007bffffffffffffffffffffffffffffffffffffffffffffffffffffffff1916827bffffffffffffffffffffffffffffffffffffffffffffffffffffffff1916148061220f57507f5b5e139f000000000000000000000000000000000000000000000000000000007bffffffffffffffffffffffffffffffffffffffffffffffffffffffff1916827bffffffffffffffffffffffffffffffffffffffffffffffffffffffff1916145b8061221f575061221e82612769565b5b9050919050565b6122318383836127e3565b505050565b60606000600283600261224991906144bb565b612253919061402e565b67ffffffffffffffff81111561226c5761226b61333c565b5b6040519080825280601f01601f19166020018201604052801561229e5781602001600182028036833780820191505090505b5090507f3000000000000000000000000000000000000000000000000000000000000000816000815181106122d6576122d5613aac565b5b60200101907effffffffffffffffffffffffffffffffffffffffffffffffffffffffffffff1916908160001a9053507f78000000000000000000000000000000000000000000000000000000000000008160018151811061233a57612339613aac565b5b60200101907effffffffffffffffffffffffffffffffffffffffffffffffffffffffffffff1916908160001a9053506000600184600261237a91906144bb565b612384919061402e565b90505b6001811115612424577f3031323334353637383961626364656600000000000000000000000000000000600f8616601081106123c6576123c5613aac565b5b1a60f81b8282815181106123dd576123dc613aac565b5b60200101907effffffffffffffffffffffffffffffffffffffffffffffffffffffffffffff1916908160001a905350600485901c94508061241d906144fd565b9050612387565b5060008414612468576040517f08c379a000000000000000000000000000000000000000000000000000000000815260040161245f90614572565b60405180910390fd5b8091505092915050565b61247c8282610e64565b1561254f57600080600084815260200190815260200160002060000160008373ffffffffffffffffffffffffffffffffffffffff1673ffffffffffffffffffffffffffffffffffffffff16815260200190815260200160002060006101000a81548160ff0219169083151502179055506124f46113a5565b73ffffffffffffffffffffffffffffffffffffffff168173ffffffffffffffffffffffffffffffffffffffff16837ff6391f5c32d9c69d2a47ea670b442974b53935d1edc7fd64eb21e047a839171b60405160405180910390a45b5050565b600061257b836000018373ffffffffffffffffffffffffffffffffffffffff1660001b61283b565b905092915050565b600082600001828154811061259b5761259a613aac565b5b9060005260206000200154905092915050565b60006125cf8473ffffffffffffffffffffffffffffffffffffffff1661294f565b15612728578373ffffffffffffffffffffffffffffffffffffffff1663150b7a026125f86113a5565b8786866040518563ffffffff1660e01b815260040161261a94939291906145e7565b6020604051808303816000875af192505050801561265657506040513d601f19601f820116820180604052508101906126539190614648565b60015b6126d8573d8060008114612686576040519150601f19603f3d011682016040523d82523d6000602084013e61268b565b606091505b5060008151036126d0576040517f08c379a00000000000000000000000000000000000000000000000000000000081526004016126c7906143c2565b60405180910390fd5b805181602001fd5b63150b7a0260e01b7bffffffffffffffffffffffffffffffffffffffffffffffffffffffff1916817bffffffffffffffffffffffffffffffffffffffffffffffffffffffff19161491505061272d565b600190505b949350505050565b600081600001805490509050919050565b600080836001016000848152602001908152602001600020541415905092915050565b60007f5a05180f000000000000000000000000000000000000000000000000000000007bffffffffffffffffffffffffffffffffffffffffffffffffffffffff1916827bffffffffffffffffffffffffffffffffffffffffffffffffffffffff191614806127dc57506127db82612962565b5b9050919050565b6127ee8383836129dc565b6127f6610bac565b15612836576040517f08c379a000000000000000000000000000000000000000000000000000000000815260040161282d906146e7565b60405180910390fd5b505050565b6000808360010160008481526020019081526020016000205490506000811461294357600060018261286d9190613ffa565b90506000600186600001805490506128859190613ffa565b90508181146128f45760008660000182815481106128a6576128a5613aac565b5b90600052602060002001549050808760000184815481106128ca576128c9613aac565b5b90600052602060002001819055508387600101600083815260200190815260200160002081905550505b8560000180548061290857612907614707565b5b600190038181906000526020600020016000905590558560010160008681526020019081526020016000206000905560019350505050612949565b60009150505b92915050565b600080823b905060008111915050919050565b60007f7965db0b000000000000000000000000000000000000000000000000000000007bffffffffffffffffffffffffffffffffffffffffffffffffffffffff1916827bffffffffffffffffffffffffffffffffffffffffffffffffffffffff191614806129d557506129d482612aee565b5b9050919050565b6129e7838383612b58565b600073ffffffffffffffffffffffffffffffffffffffff168373ffffffffffffffffffffffffffffffffffffffff1603612a2957612a2481612b5d565b612a68565b8173ffffffffffffffffffffffffffffffffffffffff168373ffffffffffffffffffffffffffffffffffffffff1614612a6757612a668382612ba6565b5b5b600073ffffffffffffffffffffffffffffffffffffffff168273ffffffffffffffffffffffffffffffffffffffff1603612aaa57612aa581612d13565b612ae9565b8273ffffffffffffffffffffffffffffffffffffffff168273ffffffffffffffffffffffffffffffffffffffff1614612ae857612ae78282612de4565b5b5b505050565b60007f01ffc9a7000000000000000000000000000000000000000000000000000000007bffffffffffffffffffffffffffffffffffffffffffffffffffffffff1916827bffffffffffffffffffffffffffffffffffffffffffffffffffffffff1916149050919050565b505050565b600a80549050600b600083815260200190815260200160002081905550600a81908060018154018082558091505060019003906000526020600020016000909190919091505550565b60006001612bb384610d04565b612bbd9190613ffa565b9050600060096000848152602001908152602001600020549050818114612ca2576000600860008673ffffffffffffffffffffffffffffffffffffffff1673ffffffffffffffffffffffffffffffffffffffff168152602001908152602001600020600084815260200190815260200160002054905080600860008773ffffffffffffffffffffffffffffffffffffffff1673ffffffffffffffffffffffffffffffffffffffff168152602001908152602001600020600084815260200190815260200160002081905550816009600083815260200190815260200160002081905550505b6009600084815260200190815260200160002060009055600860008573ffffffffffffffffffffffffffffffffffffffff1673ffffffffffffffffffffffffffffffffffffffff16815260200190815260200160002060008381526020019081526020016000206000905550505050565b60006001600a80549050612d279190613ffa565b90506000600b60008481526020019081526020016000205490506000600a8381548110612d5757612d56613aac565b5b9060005260206000200154905080600a8381548110612d7957612d78613aac565b5b906000526020600020018190555081600b600083815260200190815260200160002081905550600b600085815260200190815260200160002060009055600a805480612dc857612dc7614707565b5b6001900381819060005260206000200160009055905550505050565b6000612def83610d04565b905081600860008573ffffffffffffffffffffffffffffffffffffffff1673ffffffffffffffffffffffffffffffffffffffff168152602001908152602001600020600083815260200190815260200160002081905550806009600084815260200190815260200160002081905550505050565b6000604051905090565b600080fd5b600080fd5b60007fffffffff0000000000000000000000000000000000000000000000000000000082169050919050565b612eac81612e77565b8114612eb757600080fd5b50565b600081359050612ec981612ea3565b92915050565b600060208284031215612ee557612ee4612e6d565b5b6000612ef384828501612eba565b91505092915050565b60008115159050919050565b612f1181612efc565b82525050565b6000602082019050612f2c6000830184612f08565b92915050565b600081519050919050565b600082825260208201905092915050565b60005b83811015612f6c578082015181840152602081019050612f51565b60008484015250505050565b6000601f19601f8301169050919050565b6000612f9482612f32565b612f9e8185612f3d565b9350612fae818560208601612f4e565b612fb781612f78565b840191505092915050565b60006020820190508181036000830152612fdc8184612f89565b905092915050565b6000819050919050565b612ff781612fe4565b811461300257600080fd5b50565b60008135905061301481612fee565b92915050565b6000602082840312156130305761302f612e6d565b5b600061303e84828501613005565b91505092915050565b600073ffffffffffffffffffffffffffffffffffffffff82169050919050565b600061307282613047565b9050919050565b61308281613067565b82525050565b600060208201905061309d6000830184613079565b92915050565b6130ac81613067565b81146130b757600080fd5b50565b6000813590506130c9816130a3565b92915050565b600080604083850312156130e6576130e5612e6d565b5b60006130f4858286016130ba565b925050602061310585828601613005565b9150509250929050565b61311881612fe4565b82525050565b6000602082019050613133600083018461310f565b92915050565b60008060006060848603121561315257613151612e6d565b5b6000613160868287016130ba565b9350506020613171868287016130ba565b925050604061318286828701613005565b9150509250925092565b6000819050919050565b61319f8161318c565b81146131aa57600080fd5b50565b6000813590506131bc81613196565b92915050565b6000602082840312156131d8576131d7612e6d565b5b60006131e6848285016131ad565b91505092915050565b6131f88161318c565b82525050565b600060208201905061321360008301846131ef565b92915050565b600080604083850312156132305761322f612e6d565b5b600061323e858286016131ad565b925050602061324f858286016130ba565b9150509250929050565b60006020828403121561326f5761326e612e6d565b5b600061327d848285016130ba565b91505092915050565b6000806040838503121561329d5761329c612e6d565b5b60006132ab858286016131ad565b92505060206132bc85828601613005565b9150509250929050565b6132cf81612efc565b81146132da57600080fd5b50565b6000813590506132ec816132c6565b92915050565b6000806040838503121561330957613308612e6d565b5b6000613317858286016130ba565b9250506020613328858286016132dd565b9150509250929050565b600080fd5b600080fd5b7f4e487b7100000000000000000000000000000000000000000000000000000000600052604160045260246000fd5b61337482612f78565b810181811067ffffffffffffffff821117156133935761339261333c565b5b80604052505050565b60006133a6612e63565b90506133b2828261336b565b919050565b600067ffffffffffffffff8211156133d2576133d161333c565b5b6133db82612f78565b9050602081019050919050565b82818337600083830152505050565b600061340a613405846133b7565b61339c565b90508281526020810184848401111561342657613425613337565b5b6134318482856133e8565b509392505050565b600082601f83011261344e5761344d613332565b5b813561345e8482602086016133f7565b91505092915050565b6000806000806080858703121561348157613480612e6d565b5b600061348f878288016130ba565b94505060206134a0878288016130ba565b93505060406134b187828801613005565b925050606085013567ffffffffffffffff8111156134d2576134d1612e72565b5b6134de87828801613439565b91505092959194509250565b6000806040838503121561350157613500612e6d565b5b600061350f858286016130ba565b9250506020613520858286016130ba565b9150509250929050565b7f4e487b7100000000000000000000000000000000000000000000000000000000600052602260045260246000fd5b6000600282049050600182168061357157607f821691505b6020821081036135845761358361352a565b5b50919050565b7f4552433732313a20617070726f76656420717565727920666f72206e6f6e657860008201527f697374656e7420746f6b656e0000000000000000000000000000000000000000602082015250565b60006135e6602c83612f3d565b91506135f18261358a565b604082019050919050565b60006020820190508181036000830152613615816135d9565b9050919050565b7f4552433732313a20617070726f76616c20746f2063757272656e74206f776e6560008201527f7200000000000000000000000000000000000000000000000000000000000000602082015250565b6000613678602183612f3d565b91506136838261361c565b604082019050919050565b600060208201905081810360008301526136a78161366b565b9050919050565b7f4552433732313a20617070726f76652063616c6c6572206973206e6f74206f7760008201527f6e6572206e6f7220617070726f76656420666f7220616c6c0000000000000000602082015250565b600061370a603883612f3d565b9150613715826136ae565b604082019050919050565b60006020820190508181036000830152613739816136fd565b9050919050565b7f4552433732313a207472616e736665722063616c6c6572206973206e6f74206f60008201527f776e6572206e6f7220617070726f766564000000000000000000000000000000602082015250565b600061379c603183612f3d565b91506137a782613740565b604082019050919050565b600060208201905081810360008301526137cb8161378f565b9050919050565b7f455243373231456e756d657261626c653a206f776e657220696e646578206f7560008201527f74206f6620626f756e6473000000000000000000000000000000000000000000602082015250565b600061382e602b83612f3d565b9150613839826137d2565b604082019050919050565b6000602082019050818103600083015261385d81613821565b9050919050565b7f416363657373436f6e74726f6c3a2063616e206f6e6c792072656e6f756e636560008201527f20726f6c657320666f722073656c660000000000000000000000000000000000602082015250565b60006138c0602f83612f3d565b91506138cb82613864565b604082019050919050565b600060208201905081810360008301526138ef816138b3565b9050919050565b7f4552433732315072657365744d696e7465725061757365724175746f49643a2060008201527f6d75737420686176652070617573657220726f6c6520746f20756e7061757365602082015250565b6000613952604083612f3d565b915061395d826138f6565b604082019050919050565b6000602082019050818103600083015261398181613945565b9050919050565b7f4552433732314275726e61626c653a2063616c6c6572206973206e6f74206f7760008201527f6e6572206e6f7220617070726f76656400000000000000000000000000000000602082015250565b60006139e4603083612f3d565b91506139ef82613988565b604082019050919050565b60006020820190508181036000830152613a13816139d7565b9050919050565b7f455243373231456e756d657261626c653a20676c6f62616c20696e646578206f60008201527f7574206f6620626f756e64730000000000000000000000000000000000000000602082015250565b6000613a76602c83612f3d565b9150613a8182613a1a565b604082019050919050565b60006020820190508181036000830152613aa581613a69565b9050919050565b7f4e487b7100000000000000000000000000000000000000000000000000000000600052603260045260246000fd5b7f4552433732313a206f776e657220717565727920666f72206e6f6e657869737460008201527f656e7420746f6b656e0000000000000000000000000000000000000000000000602082015250565b6000613b37602983612f3d565b9150613b4282613adb565b604082019050919050565b60006020820190508181036000830152613b6681613b2a565b9050919050565b7f4552433732315072657365744d696e7465725061757365724175746f49643a2060008201527f6d7573742068617665206d696e74657220726f6c6520746f206d696e74000000602082015250565b6000613bc9603d83612f3d565b9150613bd482613b6d565b604082019050919050565b60006020820190508181036000830152613bf881613bbc565b9050919050565b7f4552433732313a2062616c616e636520717565727920666f7220746865207a6560008201527f726f206164647265737300000000000000000000000000000000000000000000602082015250565b6000613c5b602a83612f3d565b9150613c6682613bff565b604082019050919050565b60006020820190508181036000830152613c8a81613c4e565b9050919050565b7f4552433732315072657365744d696e7465725061757365724175746f49643a2060008201527f6d75737420686176652070617573657220726f6c6520746f2070617573650000602082015250565b6000613ced603e83612f3d565b9150613cf882613c91565b604082019050919050565b60006020820190508181036000830152613d1c81613ce0565b9050919050565b7f4552433732314d657461646174613a2055524920717565727920666f72206e6f60008201527f6e6578697374656e7420746f6b656e0000000000000000000000000000000000602082015250565b6000613d7f602f83612f3d565b9150613d8a82613d23565b604082019050919050565b60006020820190508181036000830152613dae81613d72565b9050919050565b600081905092915050565b6000613dcb82612f32565b613dd58185613db5565b9350613de5818560208601612f4e565b80840191505092915050565b6000613dfd8285613dc0565b9150613e098284613dc0565b91508190509392505050565b7f4552433732313a206f70657261746f7220717565727920666f72206e6f6e657860008201527f697374656e7420746f6b656e0000000000000000000000000000000000000000602082015250565b6000613e71602c83612f3d565b9150613e7c82613e15565b604082019050919050565b60006020820190508181036000830152613ea081613e64565b9050919050565b7f4552433732313a207472616e73666572206f6620746f6b656e2074686174206960008201527f73206e6f74206f776e0000000000000000000000000000000000000000000000602082015250565b6000613f03602983612f3d565b9150613f0e82613ea7565b604082019050919050565b60006020820190508181036000830152613f3281613ef6565b9050919050565b7f4552433732313a207472616e7366657220746f20746865207a65726f2061646460008201527f7265737300000000000000000000000000000000000000000000000000000000602082015250565b6000613f95602483612f3d565b9150613fa082613f39565b604082019050919050565b60006020820190508181036000830152613fc481613f88565b9050919050565b7f4e487b7100000000000000000000000000000000000000000000000000000000600052601160045260246000fd5b600061400582612fe4565b915061401083612fe4565b925082820390508181111561402857614027613fcb565b5b92915050565b600061403982612fe4565b915061404483612fe4565b925082820190508082111561405c5761405b613fcb565b5b92915050565b7f416363657373436f6e74726f6c3a206163636f756e7420000000000000000000600082015250565b6000614098601783613db5565b91506140a382614062565b601782019050919050565b7f206973206d697373696e6720726f6c6520000000000000000000000000000000600082015250565b60006140e4601183613db5565b91506140ef826140ae565b601182019050919050565b60006141058261408b565b91506141118285613dc0565b915061411c826140d7565b91506141288284613dc0565b91508190509392505050565b7f5061757361626c653a206e6f7420706175736564000000000000000000000000600082015250565b600061416a601483612f3d565b915061417582614134565b602082019050919050565b600060208201905081810360008301526141998161415d565b9050919050565b7f4552433732313a206d696e7420746f20746865207a65726f2061646472657373600082015250565b60006141d6602083612f3d565b91506141e1826141a0565b602082019050919050565b60006020820190508181036000830152614205816141c9565b9050919050565b7f4552433732313a20746f6b656e20616c7265616479206d696e74656400000000600082015250565b6000614242601c83612f3d565b915061424d8261420c565b602082019050919050565b6000602082019050818103600083015261427181614235565b9050919050565b7f5061757361626c653a2070617573656400000000000000000000000000000000600082015250565b60006142ae601083612f3d565b91506142b982614278565b602082019050919050565b600060208201905081810360008301526142dd816142a1565b9050919050565b7f4552433732313a20617070726f766520746f2063616c6c657200000000000000600082015250565b600061431a601983612f3d565b9150614325826142e4565b602082019050919050565b600060208201905081810360008301526143498161430d565b9050919050565b7f4552433732313a207472616e7366657220746f206e6f6e20455243373231526560008201527f63656976657220696d706c656d656e7465720000000000000000000000000000602082015250565b60006143ac603283612f3d565b91506143b782614350565b604082019050919050565b600060208201905081810360008301526143db8161439f565b9050919050565b60006143ed82612fe4565b91507fffffffffffffffffffffffffffffffffffffffffffffffffffffffffffffffff820361441f5761441e613fcb565b5b600182019050919050565b7f4e487b7100000000000000000000000000000000000000000000000000000000600052601260045260246000fd5b600061446482612fe4565b915061446f83612fe4565b92508261447f5761447e61442a565b5b828204905092915050565b600061449582612fe4565b91506144a083612fe4565b9250826144b0576144af61442a565b5b828206905092915050565b60006144c682612fe4565b91506144d183612fe4565b92508282026144df81612fe4565b915082820484148315176144f6576144f5613fcb565b5b5092915050565b600061450882612fe4565b91506000820361451b5761451a613fcb565b5b600182039050919050565b7f537472696e67733a20686578206c656e67746820696e73756666696369656e74600082015250565b600061455c602083612f3d565b915061456782614526565b602082019050919050565b6000602082019050818103600083015261458b8161454f565b9050919050565b600081519050919050565b600082825260208201905092915050565b60006145b982614592565b6145c3818561459d565b93506145d3818560208601612f4e565b6145dc81612f78565b840191505092915050565b60006080820190506145fc6000830187613079565b6146096020830186613079565b614616604083018561310f565b818103606083015261462881846145ae565b905095945050505050565b60008151905061464281612ea3565b92915050565b60006020828403121561465e5761465d612e6d565b5b600061466c84828501614633565b91505092915050565b7f4552433732315061757361626c653a20746f6b656e207472616e73666572207760008201527f68696c6520706175736564000000000000000000000000000000000000000000602082015250565b60006146d1602b83612f3d565b91506146dc82614675565b604082019050919050565b60006020820190508181036000830152614700816146c4565b9050919050565b7f4e487b7100000000000000000000000000000000000000000000000000000000600052603160045260246000fdfea264697066735822122012a56a3377747e026d3672107c77e6f066bef2eec6779f7df08b43f19658c09c64736f6c63430008110033",
  "linkReferences": {},
  "deployedLinkReferences": {}
}