{
  "_format": "hh-sol-artifact-1",
  "contractName": "IncrementalBinaryTreeTest",
  "sourceName": "contracts/zk-kit/incremental-merkle-tree.sol/test/IncrementalBinaryTreeTest.sol",
  "abi": [
    {
      "anonymous": false,
      "inputs": [
        {
          "indexed": true,
          "internalType": "bytes32",
          "name": "treeId",
          "type": "bytes32"
        },
        {
          "indexed": false,
          "internalType": "uint256",
          "name": "leaf",
          "type": "uint256"
        },
        {
          "indexed": false,
          "internalType": "uint256",
          "name": "root",
          "type": "uint256"
        }
      ],
      "name": "LeafInserted",
      "type": "event"
    },
    {
      "anonymous": false,
      "inputs": [
        {
          "indexed": true,
          "internalType": "bytes32",
          "name": "treeId",
          "type": "bytes32"
        },
        {
          "indexed": false,
          "internalType": "uint256",
          "name": "leaf",
          "type": "uint256"
        },
        {
          "indexed": false,
          "internalType": "uint256",
          "name": "root",
          "type": "uint256"
        }
      ],
      "name": "LeafRemoved",
      "type": "event"
    },
    {
      "anonymous": false,
      "inputs": [
        {
          "indexed": true,
          "internalType": "bytes32",
          "name": "treeId",
          "type": "bytes32"
        },
        {
          "indexed": false,
          "internalType": "uint256",
          "name": "leaf",
          "type": "uint256"
        },
        {
          "indexed": false,
          "internalType": "uint256",
          "name": "root",
          "type": "uint256"
        }
      ],
      "name": "LeafUpdated",
      "type": "event"
    },
    {
      "anonymous": false,
      "inputs": [
        {
          "indexed": false,
          "internalType": "bytes32",
          "name": "id",
          "type": "bytes32"
        },
        {
          "indexed": false,
          "internalType": "uint256",
          "name": "depth",
          "type": "uint256"
        }
      ],
      "name": "TreeCreated",
      "type": "event"
    },
    {
      "inputs": [
        {
          "internalType": "bytes32",
          "name": "_id",
          "type": "bytes32"
        },
        {
          "internalType": "uint256",
          "name": "_depth",
          "type": "uint256"
        }
      ],
      "name": "createTree",
      "outputs": [],
      "stateMutability": "nonpayable",
      "type": "function"
    },
    {
      "inputs": [
        {
          "internalType": "bytes32",
          "name": "_treeId",
          "type": "bytes32"
        },
        {
          "internalType": "uint256",
          "name": "_leaf",
          "type": "uint256"
        }
      ],
      "name": "insertLeaf",
      "outputs": [],
      "stateMutability": "nonpayable",
      "type": "function"
    },
    {
      "inputs": [
        {
          "internalType": "bytes32",
          "name": "_treeId",
          "type": "bytes32"
        },
        {
          "internalType": "uint256",
          "name": "_leaf",
          "type": "uint256"
        },
        {
          "internalType": "uint256[]",
          "name": "_proofSiblings",
          "type": "uint256[]"
        },
        {
          "internalType": "uint8[]",
          "name": "_proofPathIndices",
          "type": "uint8[]"
        }
      ],
      "name": "removeLeaf",
      "outputs": [],
      "stateMutability": "nonpayable",
      "type": "function"
    },
    {
      "inputs": [
        {
          "internalType": "bytes32",
          "name": "",
          "type": "bytes32"
        }
      ],
      "name": "trees",
      "outputs": [
        {
          "internalType": "uint256",
          "name": "depth",
          "type": "uint256"
        },
        {
          "internalType": "uint256",
          "name": "root",
          "type": "uint256"
        },
        {
          "internalType": "uint256",
          "name": "numberOfLeaves",
          "type": "uint256"
        }
      ],
      "stateMutability": "view",
      "type": "function"
    },
    {
      "inputs": [
        {
          "internalType": "bytes32",
          "name": "_treeId",
          "type": "bytes32"
        },
        {
          "internalType": "uint256",
          "name": "_leaf",
          "type": "uint256"
        },
        {
          "internalType": "uint256",
          "name": "_newLeaf",
          "type": "uint256"
        },
        {
          "internalType": "uint256[]",
          "name": "_proofSiblings",
          "type": "uint256[]"
        },
        {
          "internalType": "uint8[]",
          "name": "_proofPathIndices",
          "type": "uint8[]"
        }
      ],
      "name": "updateLeaf",
      "outputs": [],
      "stateMutability": "nonpayable",
      "type": "function"
    }
  ],
  "bytecode": "0x608060405234801561001057600080fd5b50610dcd806100206000396000f3fe608060405234801561001057600080fd5b50600436106100575760003560e01c806362511ef11461005c5780636e9ffdf9146100785780637385d047146100945780637fb345f2146100b0578063e80313c7146100e2575b600080fd5b610076600480360381019061007191906106fd565b6100fe565b005b610092600480360381019061008d91906107a4565b610231565b005b6100ae60048036038101906100a991906107a4565b610345565b005b6100ca60048036038101906100c591906107e4565b61046c565b6040516100d993929190610820565b60405180910390f35b6100fc60048036038101906100f79190610857565b610496565b005b60008060008881526020019081526020016000206000015403610156576040517f08c379a000000000000000000000000000000000000000000000000000000000815260040161014d90610996565b60405180910390fd5b60008087815260200190815260200160002073__$5c20d492b8e3aa1dda6dbe0e60e8de13ac$__630629596f909187878787876040518763ffffffff1660e01b81526004016101aa96959493929190610b43565b60006040518083038186803b1580156101c257600080fd5b505af41580156101d6573d6000803e3d6000fd5b50505050857f2ae0d3bf090d30a4d7382ef854bf510cf63f47e072c94e8347a0d5afd296ff10866000808a815260200190815260200160002060010154604051610221929190610b9a565b60405180910390a2505050505050565b60008060008481526020019081526020016000206000015414610289576040517f08c379a000000000000000000000000000000000000000000000000000000000815260040161028090610c35565b60405180910390fd5b60008083815260200190815260200160002073__$5c20d492b8e3aa1dda6dbe0e60e8de13ac$__631095fbb490918360006040518463ffffffff1660e01b81526004016102d893929190610c9a565b60006040518083038186803b1580156102f057600080fd5b505af4158015610304573d6000803e3d6000fd5b505050507fe67226659469a0b7b1733a692c01b145aeaed50b4debfde8260883619e4916558282604051610339929190610ce0565b60405180910390a15050565b6000806000848152602001908152602001600020600001540361039d576040517f08c379a000000000000000000000000000000000000000000000000000000000815260040161039490610996565b60405180910390fd5b60008083815260200190815260200160002073__$5c20d492b8e3aa1dda6dbe0e60e8de13ac$__63168703fa9091836040518363ffffffff1660e01b81526004016103e9929190610d09565b60006040518083038186803b15801561040157600080fd5b505af4158015610415573d6000803e3d6000fd5b50505050817faf94f1a620faf44b2d0656642b2d31b0bfd4aa4d8471cbb1ba0087e5d0a61d578260008086815260200190815260200160002060010154604051610460929190610b9a565b60405180910390a25050565b60006020528060005260406000206000915090508060000154908060010154908060020154905083565b600080600089815260200190815260200160002060000154036104ee576040517f08c379a00000000000000000000000000000000000000000000000000000000081526004016104e590610996565b60405180910390fd5b60008088815260200190815260200160002073__$5c20d492b8e3aa1dda6dbe0e60e8de13ac$__63a547882790918888888888886040518863ffffffff1660e01b81526004016105449796959493929190610d32565b60006040518083038186803b15801561055c57600080fd5b505af4158015610570573d6000803e3d6000fd5b50505050867f4523b516e02f0da379311b8942e433c763e813ad686bbb9aff0c7ef14379cbbe866000808b8152602001908152602001600020600101546040516105bb929190610b9a565b60405180910390a250505050505050565b600080fd5b600080fd5b6000819050919050565b6105e9816105d6565b81146105f457600080fd5b50565b600081359050610606816105e0565b92915050565b6000819050919050565b61061f8161060c565b811461062a57600080fd5b50565b60008135905061063c81610616565b92915050565b600080fd5b600080fd5b600080fd5b60008083601f84011261066757610666610642565b5b8235905067ffffffffffffffff81111561068457610683610647565b5b6020830191508360208202830111156106a05761069f61064c565b5b9250929050565b60008083601f8401126106bd576106bc610642565b5b8235905067ffffffffffffffff8111156106da576106d9610647565b5b6020830191508360208202830111156106f6576106f561064c565b5b9250929050565b6000806000806000806080878903121561071a576107196105cc565b5b600061072889828a016105f7565b965050602061073989828a0161062d565b955050604087013567ffffffffffffffff81111561075a576107596105d1565b5b61076689828a01610651565b9450945050606087013567ffffffffffffffff811115610789576107886105d1565b5b61079589828a016106a7565b92509250509295509295509295565b600080604083850312156107bb576107ba6105cc565b5b60006107c9858286016105f7565b92505060206107da8582860161062d565b9150509250929050565b6000602082840312156107fa576107f96105cc565b5b6000610808848285016105f7565b91505092915050565b61081a8161060c565b82525050565b60006060820190506108356000830186610811565b6108426020830185610811565b61084f6040830184610811565b949350505050565b600080600080600080600060a0888a031215610876576108756105cc565b5b60006108848a828b016105f7565b97505060206108958a828b0161062d565b96505060406108a68a828b0161062d565b955050606088013567ffffffffffffffff8111156108c7576108c66105d1565b5b6108d38a828b01610651565b9450945050608088013567ffffffffffffffff8111156108f6576108f56105d1565b5b6109028a828b016106a7565b925092505092959891949750929550565b600082825260208201905092915050565b7f496e6372656d656e74616c42696e61727954726565546573743a20747265652060008201527f646f6573206e6f74206578697374000000000000000000000000000000000000602082015250565b6000610980602e83610913565b915061098b82610924565b604082019050919050565b600060208201905081810360008301526109af81610973565b9050919050565b8082525050565b6109c68161060c565b82525050565b600082825260208201905092915050565b600080fd5b82818337505050565b60006109f783856109cc565b93507f07ffffffffffffffffffffffffffffffffffffffffffffffffffffffffffffff831115610a2a57610a296109dd565b5b602083029250610a3b8385846109e2565b82840190509392505050565b600082825260208201905092915050565b6000819050919050565b600060ff82169050919050565b610a7881610a62565b82525050565b6000610a8a8383610a6f565b60208301905092915050565b610a9f81610a62565b8114610aaa57600080fd5b50565b600081359050610abc81610a96565b92915050565b6000610ad16020840184610aad565b905092915050565b6000602082019050919050565b6000610af28385610a47565b9350610afd82610a58565b8060005b85811015610b3657610b138284610ac2565b610b1d8882610a7e565b9750610b2883610ad9565b925050600181019050610b01565b5085925050509392505050565b6000608082019050610b5860008301896109b6565b610b6560208301886109bd565b8181036040830152610b788186886109eb565b90508181036060830152610b8d818486610ae6565b9050979650505050505050565b6000604082019050610baf6000830185610811565b610bbc6020830184610811565b9392505050565b7f496e6372656d656e74616c42696e61727954726565546573743a20747265652060008201527f616c726561647920657869737473000000000000000000000000000000000000602082015250565b6000610c1f602e83610913565b9150610c2a82610bc3565b604082019050919050565b60006020820190508181036000830152610c4e81610c12565b9050919050565b6000819050919050565b6000819050919050565b6000610c84610c7f610c7a84610c55565b610c5f565b61060c565b9050919050565b610c9481610c69565b82525050565b6000606082019050610caf60008301866109b6565b610cbc60208301856109bd565b610cc96040830184610c8b565b949350505050565b610cda816105d6565b82525050565b6000604082019050610cf56000830185610cd1565b610d026020830184610811565b9392505050565b6000604082019050610d1e60008301856109b6565b610d2b60208301846109bd565b9392505050565b600060a082019050610d47600083018a6109b6565b610d5460208301896109bd565b610d6160408301886109bd565b8181036060830152610d748186886109eb565b90508181036080830152610d89818486610ae6565b90509897505050505050505056fea2646970667358221220f85c18812507db1638956b8b3ce2e0edf6522fae4803f2a9c29998ffee0b7a8264736f6c63430008110033",
  "linkReferences": {
    "contracts/zk-kit/incremental-merkle-tree.sol/IncrementalBinaryTree.sol": {
      "IncrementalBinaryTree": [
        {
          "length": 20,
          "start": 394
        },
        {
          "length": 20,
          "start": 701
        },
        {
          "length": 20,
          "start": 977
        },
        {
          "length": 20,
          "start": 1314
        }
      ]
    }
  },
  "deployedLinkReferences": {
    "contracts/zk-kit/incremental-merkle-tree.sol/IncrementalBinaryTree.sol": {
      "IncrementalBinaryTree": [
        {
          "length": 20,
          "start": 362
        },
        {
          "length": 20,
          "start": 669
        },
        {
          "length": 20,
          "start": 945
        },
        {
          "length": 20,
          "start": 1282
        }
      ]
    }
  }
}