{
  "_format": "hh-sol-artifact-1",
  "contractName": "CredsProtocolOpenIssuer",
  "sourceName": "contracts/CredsProtocolOpenIssuer.sol",
  "abi": [
    {
      "inputs": [
        {
          "components": [
            {
              "internalType": "address",
              "name": "contractAddress",
              "type": "address"
            },
            {
              "internalType": "uint256",
              "name": "merkleTreeDepth",
              "type": "uint256"
            }
          ],
          "internalType": "struct ICredential.Verifier[]",
          "name": "_verifiers",
          "type": "tuple[]"
        },
        {
          "internalType": "address",
          "name": "_issuer",
          "type": "address"
        },
        {
          "internalType": "string",
          "name": "_issuerName",
          "type": "string"
        },
        {
          "internalType": "string",
          "name": "_issuerSymbol",
          "type": "string"
        }
      ],
      "stateMutability": "nonpayable",
      "type": "constructor"
    },
    {
      "inputs": [],
      "name": "Credential__CallerIsNotTheCredIssuer",
      "type": "error"
    },
    {
      "inputs": [],
      "name": "Credential__CredAlreadyExists",
      "type": "error"
    },
    {
      "inputs": [],
      "name": "Credential__CredDoesNotExist",
      "type": "error"
    },
    {
      "inputs": [],
      "name": "Credential__CredIdIsNotLessThanSnarkScalarField",
      "type": "error"
    },
    {
      "inputs": [],
      "name": "Credential__MerkleTreeDepthIsNotSupported",
      "type": "error"
    },
    {
      "inputs": [],
      "name": "Credential__MerkleTreeRootIsExpired",
      "type": "error"
    },
    {
      "inputs": [],
      "name": "Credential__MerkleTreeRootIsNotPartOfTheCred",
      "type": "error"
    },
    {
      "inputs": [],
      "name": "Credential__YouAreUsingTheSameNillifierTwice",
      "type": "error"
    },
    {
      "anonymous": false,
      "inputs": [
        {
          "indexed": true,
          "internalType": "address",
          "name": "issuer",
          "type": "address"
        },
        {
          "indexed": true,
          "internalType": "uint256",
          "name": "credId",
          "type": "uint256"
        },
        {
          "indexed": false,
          "internalType": "uint256",
          "name": "merkleTreeDepth",
          "type": "uint256"
        },
        {
          "indexed": false,
          "internalType": "uint256",
          "name": "zeroValue",
          "type": "uint256"
        }
      ],
      "name": "CredCreated",
      "type": "event"
    },
    {
      "anonymous": false,
      "inputs": [
        {
          "indexed": true,
          "internalType": "uint256",
          "name": "credId",
          "type": "uint256"
        },
        {
          "indexed": false,
          "internalType": "uint256",
          "name": "index",
          "type": "uint256"
        },
        {
          "indexed": false,
          "internalType": "uint256",
          "name": "identityCommitment",
          "type": "uint256"
        },
        {
          "indexed": false,
          "internalType": "uint256",
          "name": "merkleTreeRoot",
          "type": "uint256"
        }
      ],
      "name": "IdentityAdded",
      "type": "event"
    },
    {
      "anonymous": false,
      "inputs": [
        {
          "indexed": true,
          "internalType": "uint256",
          "name": "credId",
          "type": "uint256"
        },
        {
          "indexed": false,
          "internalType": "uint256",
          "name": "index",
          "type": "uint256"
        },
        {
          "indexed": false,
          "internalType": "uint256",
          "name": "identityCommitment",
          "type": "uint256"
        },
        {
          "indexed": false,
          "internalType": "uint256",
          "name": "merkleTreeRoot",
          "type": "uint256"
        }
      ],
      "name": "IdentityRemoved",
      "type": "event"
    },
    {
      "anonymous": false,
      "inputs": [
        {
          "indexed": true,
          "internalType": "uint256",
          "name": "credId",
          "type": "uint256"
        },
        {
          "indexed": false,
          "internalType": "uint256",
          "name": "index",
          "type": "uint256"
        },
        {
          "indexed": false,
          "internalType": "uint256",
          "name": "identityCommitment",
          "type": "uint256"
        },
        {
          "indexed": false,
          "internalType": "uint256",
          "name": "newIdentityCommitment",
          "type": "uint256"
        },
        {
          "indexed": false,
          "internalType": "uint256",
          "name": "merkleTreeRoot",
          "type": "uint256"
        }
      ],
      "name": "IdentityUpdated",
      "type": "event"
    },
    {
      "anonymous": false,
      "inputs": [
        {
          "indexed": false,
          "internalType": "uint256",
          "name": "nullifierHash",
          "type": "uint256"
        }
      ],
      "name": "NullifierHashAdded",
      "type": "event"
    },
    {
      "anonymous": false,
      "inputs": [
        {
          "indexed": true,
          "internalType": "uint256",
          "name": "credId",
          "type": "uint256"
        },
        {
          "indexed": false,
          "internalType": "uint256",
          "name": "merkleTreeRoot",
          "type": "uint256"
        },
        {
          "indexed": false,
          "internalType": "uint256",
          "name": "externalNullifier",
          "type": "uint256"
        },
        {
          "indexed": false,
          "internalType": "uint256",
          "name": "nullifierHash",
          "type": "uint256"
        },
        {
          "indexed": false,
          "internalType": "bytes32",
          "name": "signal",
          "type": "bytes32"
        }
      ],
      "name": "ProofVerified",
      "type": "event"
    },
    {
      "anonymous": false,
      "inputs": [
        {
          "indexed": true,
          "internalType": "address",
          "name": "issuerAddress",
          "type": "address"
        },
        {
          "indexed": true,
          "internalType": "string",
          "name": "issuerName",
          "type": "string"
        },
        {
          "indexed": true,
          "internalType": "string",
          "name": "issuerSymbol",
          "type": "string"
        }
      ],
      "name": "issuerRegistered",
      "type": "event"
    },
    {
      "inputs": [
        {
          "internalType": "uint256",
          "name": "credId",
          "type": "uint256"
        },
        {
          "internalType": "uint256",
          "name": "identityCommitment",
          "type": "uint256"
        }
      ],
      "name": "claimCred",
      "outputs": [],
      "stateMutability": "nonpayable",
      "type": "function"
    },
    {
      "inputs": [],
      "name": "credIdCounter",
      "outputs": [
        {
          "internalType": "uint256",
          "name": "",
          "type": "uint256"
        }
      ],
      "stateMutability": "view",
      "type": "function"
    },
    {
      "inputs": [
        {
          "internalType": "uint256",
          "name": "",
          "type": "uint256"
        }
      ],
      "name": "creds",
      "outputs": [
        {
          "internalType": "address",
          "name": "admin",
          "type": "address"
        },
        {
          "internalType": "string",
          "name": "credURI",
          "type": "string"
        },
        {
          "internalType": "uint256",
          "name": "merkleRootDuration",
          "type": "uint256"
        }
      ],
      "stateMutability": "view",
      "type": "function"
    },
    {
      "inputs": [],
      "name": "credsIssuedCount",
      "outputs": [
        {
          "internalType": "uint256",
          "name": "",
          "type": "uint256"
        }
      ],
      "stateMutability": "view",
      "type": "function"
    },
    {
      "inputs": [],
      "name": "credsIssuer",
      "outputs": [
        {
          "internalType": "address",
          "name": "",
          "type": "address"
        }
      ],
      "stateMutability": "view",
      "type": "function"
    },
    {
      "inputs": [],
      "name": "credsProtocolRegistry",
      "outputs": [
        {
          "internalType": "address",
          "name": "",
          "type": "address"
        }
      ],
      "stateMutability": "view",
      "type": "function"
    },
    {
      "inputs": [
        {
          "internalType": "uint256",
          "name": "credID",
          "type": "uint256"
        }
      ],
      "name": "getMerkleTreeDepth",
      "outputs": [
        {
          "internalType": "uint256",
          "name": "",
          "type": "uint256"
        }
      ],
      "stateMutability": "view",
      "type": "function"
    },
    {
      "inputs": [
        {
          "internalType": "uint256",
          "name": "credID",
          "type": "uint256"
        }
      ],
      "name": "getMerkleTreeRoot",
      "outputs": [
        {
          "internalType": "uint256",
          "name": "",
          "type": "uint256"
        }
      ],
      "stateMutability": "view",
      "type": "function"
    },
    {
      "inputs": [
        {
          "internalType": "uint256",
          "name": "credID",
          "type": "uint256"
        }
      ],
      "name": "getNumberOfMerkleTreeLeaves",
      "outputs": [
        {
          "internalType": "uint256",
          "name": "",
          "type": "uint256"
        }
      ],
      "stateMutability": "view",
      "type": "function"
    },
    {
      "inputs": [
        {
          "internalType": "uint256",
          "name": "merkleTreeDepth",
          "type": "uint256"
        },
        {
          "internalType": "uint256",
          "name": "zeroValue",
          "type": "uint256"
        },
        {
          "internalType": "address",
          "name": "admin",
          "type": "address"
        },
        {
          "internalType": "string",
          "name": "credURI",
          "type": "string"
        }
      ],
      "name": "issueCred",
      "outputs": [],
      "stateMutability": "nonpayable",
      "type": "function"
    },
    {
      "inputs": [],
      "name": "issuer",
      "outputs": [
        {
          "internalType": "address",
          "name": "",
          "type": "address"
        }
      ],
      "stateMutability": "view",
      "type": "function"
    },
    {
      "inputs": [],
      "name": "issuerName",
      "outputs": [
        {
          "internalType": "string",
          "name": "",
          "type": "string"
        }
      ],
      "stateMutability": "view",
      "type": "function"
    },
    {
      "inputs": [],
      "name": "issuerSymbol",
      "outputs": [
        {
          "internalType": "string",
          "name": "",
          "type": "string"
        }
      ],
      "stateMutability": "view",
      "type": "function"
    },
    {
      "inputs": [
        {
          "internalType": "uint256",
          "name": "",
          "type": "uint256"
        }
      ],
      "name": "verifiers",
      "outputs": [
        {
          "internalType": "contract IVerifier",
          "name": "",
          "type": "address"
        }
      ],
      "stateMutability": "view",
      "type": "function"
    },
    {
      "inputs": [
        {
          "internalType": "uint256",
          "name": "credId",
          "type": "uint256"
        },
        {
          "internalType": "uint256",
          "name": "merkleTreeRoot",
          "type": "uint256"
        },
        {
          "internalType": "bytes32",
          "name": "signal",
          "type": "bytes32"
        },
        {
          "internalType": "uint256",
          "name": "nullifierHash",
          "type": "uint256"
        },
        {
          "internalType": "uint256",
          "name": "externalNullifier",
          "type": "uint256"
        },
        {
          "internalType": "uint256[8]",
          "name": "proof",
          "type": "uint256[8]"
        }
      ],
      "name": "verifyCred",
      "outputs": [],
      "stateMutability": "nonpayable",
      "type": "function"
    }
  ],
  "bytecode": "0x608060405273414b893562f46f5180971c3389784a447581b2d3600560006101000a81548173ffffffffffffffffffffffffffffffffffffffff021916908373ffffffffffffffffffffffffffffffffffffffff1602179055503480156200006657600080fd5b506040516200270d3803806200270d83398181016040528101906200008c91906200062c565b8383838360005b84518160ff1610156200014657848160ff1681518110620000b957620000b8620006fb565b5b60200260200101516000015160066000878460ff1681518110620000e257620000e1620006fb565b5b602002602001015160200151815260200190815260200160002060006101000a81548173ffffffffffffffffffffffffffffffffffffffff021916908373ffffffffffffffffffffffffffffffffffffffff16021790555080600101905062000093565b5082600160006101000a81548173ffffffffffffffffffffffffffffffffffffffff021916908373ffffffffffffffffffffffffffffffffffffffff16021790555081600290816200019991906200096b565b508060039081620001ab91906200096b565b50600560009054906101000a900473ffffffffffffffffffffffffffffffffffffffff1673ffffffffffffffffffffffffffffffffffffffff1663c2551c8284306040518363ffffffff1660e01b81526004016200020b92919062000a63565b600060405180830381600087803b1580156200022657600080fd5b505af11580156200023b573d6000803e3d6000fd5b50505050806040516200024f919062000ad2565b60405180910390208260405162000267919062000ad2565b60405180910390208473ffffffffffffffffffffffffffffffffffffffff167ff51d47712d8574bf3715cf1db64ebb5a5c264fe57ff450433484f786f742ecec60405160405180910390a4505050505050505062000aeb565b6000604051905090565b600080fd5b600080fd5b600080fd5b6000601f19601f8301169050919050565b7f4e487b7100000000000000000000000000000000000000000000000000000000600052604160045260246000fd5b6200032482620002d9565b810181811067ffffffffffffffff82111715620003465762000345620002ea565b5b80604052505050565b60006200035b620002c0565b905062000369828262000319565b919050565b600067ffffffffffffffff8211156200038c576200038b620002ea565b5b602082029050602081019050919050565b600080fd5b600080fd5b600073ffffffffffffffffffffffffffffffffffffffff82169050919050565b6000620003d482620003a7565b9050919050565b620003e681620003c7565b8114620003f257600080fd5b50565b6000815190506200040681620003db565b92915050565b6000819050919050565b62000421816200040c565b81146200042d57600080fd5b50565b600081519050620004418162000416565b92915050565b60006040828403121562000460576200045f620003a2565b5b6200046c60406200034f565b905060006200047e84828501620003f5565b6000830152506020620004948482850162000430565b60208301525092915050565b6000620004b7620004b1846200036e565b6200034f565b90508083825260208201905060408402830185811115620004dd57620004dc6200039d565b5b835b818110156200050a5780620004f5888262000447565b845260208401935050604081019050620004df565b5050509392505050565b600082601f8301126200052c576200052b620002d4565b5b81516200053e848260208601620004a0565b91505092915050565b600080fd5b600067ffffffffffffffff8211156200056a5762000569620002ea565b5b6200057582620002d9565b9050602081019050919050565b60005b83811015620005a257808201518184015260208101905062000585565b60008484015250505050565b6000620005c5620005bf846200054c565b6200034f565b905082815260208101848484011115620005e457620005e362000547565b5b620005f184828562000582565b509392505050565b600082601f830112620006115762000610620002d4565b5b815162000623848260208601620005ae565b91505092915050565b60008060008060808587031215620006495762000648620002ca565b5b600085015167ffffffffffffffff8111156200066a5762000669620002cf565b5b620006788782880162000514565b94505060206200068b87828801620003f5565b935050604085015167ffffffffffffffff811115620006af57620006ae620002cf565b5b620006bd87828801620005f9565b925050606085015167ffffffffffffffff811115620006e157620006e0620002cf565b5b620006ef87828801620005f9565b91505092959194509250565b7f4e487b7100000000000000000000000000000000000000000000000000000000600052603260045260246000fd5b600081519050919050565b7f4e487b7100000000000000000000000000000000000000000000000000000000600052602260045260246000fd5b600060028204905060018216806200077d57607f821691505b60208210810362000793576200079262000735565b5b50919050565b60008190508160005260206000209050919050565b60006020601f8301049050919050565b600082821b905092915050565b600060088302620007fd7fffffffffffffffffffffffffffffffffffffffffffffffffffffffffffffffff82620007be565b620008098683620007be565b95508019841693508086168417925050509392505050565b6000819050919050565b60006200084c6200084662000840846200040c565b62000821565b6200040c565b9050919050565b6000819050919050565b62000868836200082b565b62000880620008778262000853565b848454620007cb565b825550505050565b600090565b6200089762000888565b620008a48184846200085d565b505050565b5b81811015620008cc57620008c06000826200088d565b600181019050620008aa565b5050565b601f8211156200091b57620008e58162000799565b620008f084620007ae565b8101602085101562000900578190505b620009186200090f85620007ae565b830182620008a9565b50505b505050565b600082821c905092915050565b6000620009406000198460080262000920565b1980831691505092915050565b60006200095b83836200092d565b9150826002028217905092915050565b62000976826200072a565b67ffffffffffffffff811115620009925762000991620002ea565b5b6200099e825462000764565b620009ab828285620008d0565b600060209050601f831160018114620009e35760008415620009ce578287015190505b620009da85826200094d565b86555062000a4a565b601f198416620009f38662000799565b60005b8281101562000a1d57848901518255600182019150602085019450602081019050620009f6565b8683101562000a3d578489015162000a39601f8916826200092d565b8355505b6001600288020188555050505b505050505050565b62000a5d81620003c7565b82525050565b600060408201905062000a7a600083018562000a52565b62000a89602083018462000a52565b9392505050565b600081905092915050565b600062000aa8826200072a565b62000ab4818562000a90565b935062000ac681856020860162000582565b80840191505092915050565b600062000ae0828462000a9b565b915081905092915050565b611c128062000afb6000396000f3fe608060405234801561001057600080fd5b50600436106100f55760003560e01c80636389e10711610097578063c308dd5b11610066578063c308dd5b14610288578063dabc4d51146102a6578063eb496106146102d6578063f4fd4ee4146102f4576100f5565b80636389e107146101da578063691818081461020a57806381cc7a4514610226578063ac1eff6814610258576100f5565b8063439d7275116100d3578063439d7275146101525780634ce39ead14610170578063609571911461018e578063638480be146101aa576100f5565b80631d143848146100fa5780632e9868f814610118578063352ce6e814610136575b600080fd5b610102610312565b60405161010f9190610f33565b60405180910390f35b610120610338565b60405161012d9190610fde565b60405180910390f35b610150600480360381019061014b919061104a565b6103c6565b005b61015a6103d4565b6040516101679190610fde565b60405180910390f35b610178610462565b6040516101859190610f33565b60405180910390f35b6101a860048036038101906101a391906111eb565b610488565b005b6101c460048036038101906101bf919061126e565b6104b2565b6040516101d191906112aa565b60405180910390f35b6101f460048036038101906101ef919061126e565b6104d1565b60405161020191906112aa565b60405180910390f35b610224600480360381019061021f9190611322565b6104f0565b005b610240600480360381019061023b919061126e565b610506565b60405161024f939291906113b0565b60405180910390f35b610272600480360381019061026d919061126e565b6105d8565b60405161027f919061144d565b60405180910390f35b61029061060b565b60405161029d9190610f33565b60405180910390f35b6102c060048036038101906102bb919061126e565b610631565b6040516102cd91906112aa565b60405180910390f35b6102de610650565b6040516102eb91906112aa565b60405180910390f35b6102fc610656565b60405161030991906112aa565b60405180910390f35b600860009054906101000a900473ffffffffffffffffffffffffffffffffffffffff1681565b6002805461034590611497565b80601f016020809104026020016040519081016040528092919081815260200182805461037190611497565b80156103be5780601f10610393576101008083540402835291602001916103be565b820191906000526020600020905b8154815290600101906020018083116103a157829003601f168201915b505050505081565b6103d0828261065c565b5050565b600380546103e190611497565b80601f016020809104026020016040519081016040528092919081815260200182805461040d90611497565b801561045a5780601f1061042f5761010080835404028352916020019161045a565b820191906000526020600020905b81548152906001019060200180831161043d57829003601f168201915b505050505081565b600160009054906101000a900473ffffffffffffffffffffffffffffffffffffffff1681565b600160095461049791906114f7565b6009819055506104ac600954858585856106a4565b50505050565b6000806000838152602001908152602001600020600201549050919050565b6000806000838152602001908152602001600020600001549050919050565b6104fe8686868686866107fd565b505050505050565b60076020528060005260406000206000915090508060000160009054906101000a900473ffffffffffffffffffffffffffffffffffffffff169080600101805461054f90611497565b80601f016020809104026020016040519081016040528092919081815260200182805461057b90611497565b80156105c85780601f1061059d576101008083540402835291602001916105c8565b820191906000526020600020905b8154815290600101906020018083116105ab57829003601f168201915b5050505050908060020154905083565b60066020528060005260406000206000915054906101000a900473ffffffffffffffffffffffffffffffffffffffff1681565b600560009054906101000a900473ffffffffffffffffffffffffffffffffffffffff1681565b6000806000838152602001908152602001600020600101549050919050565b60045481565b60095481565b6106668282610a5c565b600061067183610631565b90504260076000858152602001908152602001600020600301600083815260200190815260200160002081905550505050565b83600073ffffffffffffffffffffffffffffffffffffffff166006600083815260200190815260200160002060009054906101000a900473ffffffffffffffffffffffffffffffffffffffff1673ffffffffffffffffffffffffffffffffffffffff160361073e576040517f679101ad00000000000000000000000000000000000000000000000000000000815260040160405180910390fd5b61074a33878787610b82565b826007600088815260200190815260200160002060000160006101000a81548173ffffffffffffffffffffffffffffffffffffffff021916908373ffffffffffffffffffffffffffffffffffffffff160217905550816007600088815260200190815260200160002060010190816107c291906116cd565b50610e10600760008881526020019081526020016000206002018190555060016004546107ef91906114f7565b600481905550505050505050565b600061080887610631565b905060008103610844576040517f84124a0d00000000000000000000000000000000000000000000000000000000815260040160405180910390fd5b8086146109145760006007600089815260200190815260200160002060030160008881526020019081526020016000205490506000600760008a8152602001908152602001600020600201549050600082036108cc576040517fcea960e600000000000000000000000000000000000000000000000000000000815260040160405180910390fd5b80826108d891906114f7565b421115610911576040517fd088335800000000000000000000000000000000000000000000000000000000815260040160405180910390fd5b50505b60076000888152602001908152602001600020600401600085815260200190815260200160002060009054906101000a900460ff1615610980576040517f9a966b2b00000000000000000000000000000000000000000000000000000000815260040160405180910390fd5b600061098b886104d1565b905060006006600083815260200190815260200160002060009054906101000a900473ffffffffffffffffffffffffffffffffffffffff1690506109d3878988888886610cf2565b6001600760008b8152602001908152602001600020600401600088815260200190815260200160002060006101000a81548160ff021916908315150217905550887f708a95ee10fd07b9e300c13f6ad7eb0bf8f6a7b3d54c727320f9e7dfdb1296fd8988888b604051610a4994939291906117ae565b60405180910390a2505050505050505050565b6000610a67836104d1565b03610a9e576040517f84124a0d00000000000000000000000000000000000000000000000000000000815260040160405180910390fd5b60008083815260200190815260200160002073__$5c20d492b8e3aa1dda6dbe0e60e8de13ac$__63168703fa9091836040518363ffffffff1660e01b8152600401610aea929190611809565b60006040518083038186803b158015610b0257600080fd5b505af4158015610b16573d6000803e3d6000fd5b505050506000610b2583610631565b905060006001610b34856104b2565b610b3e9190611832565b9050837fe5b5631e8acf74ed776b8262e656d2b63e56882d6eb3e7d6e8b8c09661f2ca03828585604051610b7493929190611866565b60405180910390a250505050565b7f30644e72e131a029b85045b68181585d2833e84879b9709143e1f593f00000018310610bdb576040517fe730108f00000000000000000000000000000000000000000000000000000000815260040160405180910390fd5b6000610be6846104d1565b14610c1d576040517f632ab44600000000000000000000000000000000000000000000000000000000815260040160405180910390fd5b60008084815260200190815260200160002073__$5c20d492b8e3aa1dda6dbe0e60e8de13ac$__631095fbb4909184846040518463ffffffff1660e01b8152600401610c6b9392919061189d565b60006040518083038186803b158015610c8357600080fd5b505af4158015610c97573d6000803e3d6000fd5b50505050828473ffffffffffffffffffffffffffffffffffffffff167f8cd7e348e0ad6531fc8e95ec90286ba9246aa70c3d94d7fca9eb8afd6e78c35e8484604051610ce49291906118d4565b60405180910390a350505050565b6000610cfd87610ebb565b90508173ffffffffffffffffffffffffffffffffffffffff16635fe8c13b604051806040016040528086600060088110610d3a57610d396118fd565b5b6020020135815260200186600160088110610d5857610d576118fd565b5b60200201358152506040518060400160405280604051806040016040528089600260088110610d8a57610d896118fd565b5b6020020135815260200189600360088110610da857610da76118fd565b5b60200201358152508152602001604051806040016040528089600460088110610dd457610dd36118fd565b5b6020020135815260200189600560088110610df257610df16118fd565b5b6020020135815250815250604051806040016040528088600660088110610e1c57610e1b6118fd565b5b6020020135815260200188600760088110610e3a57610e396118fd565b5b602002013581525060405180608001604052808c81526020018b81526020018781526020018a8152506040518563ffffffff1660e01b8152600401610e829493929190611b59565b60006040518083038186803b158015610e9a57600080fd5b505afa158015610eae573d6000803e3d6000fd5b5050505050505050505050565b6000600882604051602001610ed09190611bc1565b6040516020818303038152906040528051906020012060001c901c9050919050565b600073ffffffffffffffffffffffffffffffffffffffff82169050919050565b6000610f1d82610ef2565b9050919050565b610f2d81610f12565b82525050565b6000602082019050610f486000830184610f24565b92915050565b600081519050919050565b600082825260208201905092915050565b60005b83811015610f88578082015181840152602081019050610f6d565b60008484015250505050565b6000601f19601f8301169050919050565b6000610fb082610f4e565b610fba8185610f59565b9350610fca818560208601610f6a565b610fd381610f94565b840191505092915050565b60006020820190508181036000830152610ff88184610fa5565b905092915050565b6000604051905090565b600080fd5b600080fd5b6000819050919050565b61102781611014565b811461103257600080fd5b50565b6000813590506110448161101e565b92915050565b600080604083850312156110615761106061100a565b5b600061106f85828601611035565b925050602061108085828601611035565b9150509250929050565b61109381610f12565b811461109e57600080fd5b50565b6000813590506110b08161108a565b92915050565b600080fd5b600080fd5b7f4e487b7100000000000000000000000000000000000000000000000000000000600052604160045260246000fd5b6110f882610f94565b810181811067ffffffffffffffff82111715611117576111166110c0565b5b80604052505050565b600061112a611000565b905061113682826110ef565b919050565b600067ffffffffffffffff821115611156576111556110c0565b5b61115f82610f94565b9050602081019050919050565b82818337600083830152505050565b600061118e6111898461113b565b611120565b9050828152602081018484840111156111aa576111a96110bb565b5b6111b584828561116c565b509392505050565b600082601f8301126111d2576111d16110b6565b5b81356111e284826020860161117b565b91505092915050565b600080600080608085870312156112055761120461100a565b5b600061121387828801611035565b945050602061122487828801611035565b9350506040611235878288016110a1565b925050606085013567ffffffffffffffff8111156112565761125561100f565b5b611262878288016111bd565b91505092959194509250565b6000602082840312156112845761128361100a565b5b600061129284828501611035565b91505092915050565b6112a481611014565b82525050565b60006020820190506112bf600083018461129b565b92915050565b6000819050919050565b6112d8816112c5565b81146112e357600080fd5b50565b6000813590506112f5816112cf565b92915050565b600080fd5b60008190508260206008028201111561131c5761131b6112fb565b5b92915050565b6000806000806000806101a087890312156113405761133f61100a565b5b600061134e89828a01611035565b965050602061135f89828a01611035565b955050604061137089828a016112e6565b945050606061138189828a01611035565b935050608061139289828a01611035565b92505060a06113a389828a01611300565b9150509295509295509295565b60006060820190506113c56000830186610f24565b81810360208301526113d78185610fa5565b90506113e6604083018461129b565b949350505050565b6000819050919050565b600061141361140e61140984610ef2565b6113ee565b610ef2565b9050919050565b6000611425826113f8565b9050919050565b60006114378261141a565b9050919050565b6114478161142c565b82525050565b6000602082019050611462600083018461143e565b92915050565b7f4e487b7100000000000000000000000000000000000000000000000000000000600052602260045260246000fd5b600060028204905060018216806114af57607f821691505b6020821081036114c2576114c1611468565b5b50919050565b7f4e487b7100000000000000000000000000000000000000000000000000000000600052601160045260246000fd5b600061150282611014565b915061150d83611014565b9250828201905080821115611525576115246114c8565b5b92915050565b60008190508160005260206000209050919050565b60006020601f8301049050919050565b600082821b905092915050565b60006008830261158d7fffffffffffffffffffffffffffffffffffffffffffffffffffffffffffffffff82611550565b6115978683611550565b95508019841693508086168417925050509392505050565b60006115ca6115c56115c084611014565b6113ee565b611014565b9050919050565b6000819050919050565b6115e4836115af565b6115f86115f0826115d1565b84845461155d565b825550505050565b600090565b61160d611600565b6116188184846115db565b505050565b5b8181101561163c57611631600082611605565b60018101905061161e565b5050565b601f821115611681576116528161152b565b61165b84611540565b8101602085101561166a578190505b61167e61167685611540565b83018261161d565b50505b505050565b600082821c905092915050565b60006116a460001984600802611686565b1980831691505092915050565b60006116bd8383611693565b9150826002028217905092915050565b6116d682610f4e565b67ffffffffffffffff8111156116ef576116ee6110c0565b5b6116f98254611497565b611704828285611640565b600060209050601f8311600181146117375760008415611725578287015190505b61172f85826116b1565b865550611797565b601f1984166117458661152b565b60005b8281101561176d57848901518255600182019150602085019450602081019050611748565b8683101561178a5784890151611786601f891682611693565b8355505b6001600288020188555050505b505050505050565b6117a8816112c5565b82525050565b60006080820190506117c3600083018761129b565b6117d0602083018661129b565b6117dd604083018561129b565b6117ea606083018461179f565b95945050505050565b8082525050565b61180381611014565b82525050565b600060408201905061181e60008301856117f3565b61182b60208301846117fa565b9392505050565b600061183d82611014565b915061184883611014565b92508282039050818111156118605761185f6114c8565b5b92915050565b600060608201905061187b600083018661129b565b611888602083018561129b565b611895604083018461129b565b949350505050565b60006060820190506118b260008301866117f3565b6118bf60208301856117fa565b6118cc60408301846117fa565b949350505050565b60006040820190506118e9600083018561129b565b6118f6602083018461129b565b9392505050565b7f4e487b7100000000000000000000000000000000000000000000000000000000600052603260045260246000fd5b600060029050919050565b600081905092915050565b6000819050919050565b61195581611014565b82525050565b6000611967838361194c565b60208301905092915050565b6000602082019050919050565b6119898161192c565b6119938184611937565b925061199e82611942565b8060005b838110156119cf5781516119b6878261195b565b96506119c183611973565b9250506001810190506119a2565b505050505050565b600060029050919050565b600081905092915050565b6000819050919050565b600081905092915050565b611a0b8161192c565b611a1581846119f7565b9250611a2082611942565b8060005b83811015611a51578151611a38878261195b565b9650611a4383611973565b925050600181019050611a24565b505050505050565b6000611a658383611a02565b60408301905092915050565b6000602082019050919050565b611a87816119d7565b611a9181846119e2565b9250611a9c826119ed565b8060005b83811015611acd578151611ab48782611a59565b9650611abf83611a71565b925050600181019050611aa0565b505050505050565b600060049050919050565b600081905092915050565b6000819050919050565b6000602082019050919050565b611b0b81611ad5565b611b158184611ae0565b9250611b2082611aeb565b8060005b83811015611b51578151611b38878261195b565b9650611b4383611af5565b925050600181019050611b24565b505050505050565b600061018082019050611b6f6000830187611980565b611b7c6040830186611a7e565b611b8960c0830185611980565b611b97610100830184611b02565b95945050505050565b6000819050919050565b611bbb611bb6826112c5565b611ba0565b82525050565b6000611bcd8284611baa565b6020820191508190509291505056fea2646970667358221220d91c61e81134b2d4117a4322857e5c58b0bce5b826c7faccb9732018edbcc0dd64736f6c63430008110033",
  "linkReferences": {
    "contracts/zk-kit/incremental-merkle-tree.sol/IncrementalBinaryTree.sol": {
      "IncrementalBinaryTree": [
        {
          "length": 20,
          "start": 5549
        },
        {
          "length": 20,
          "start": 5932
        }
      ]
    }
  },
  "deployedLinkReferences": {
    "contracts/zk-kit/incremental-merkle-tree.sol/IncrementalBinaryTree.sol": {
      "IncrementalBinaryTree": [
        {
          "length": 20,
          "start": 2738
        },
        {
          "length": 20,
          "start": 3121
        }
      ]
    }
  }
}