{
  "_format": "hh-sol-artifact-1",
  "contractName": "CredsProtocolAccessControl",
  "sourceName": "contracts/CredsAccessControl.sol",
  "abi": [
    {
      "inputs": [
        {
          "internalType": "contract IEncryptionOracle",
          "name": "_oracle",
          "type": "address"
        },
        {
          "internalType": "address",
          "name": "_issuer",
          "type": "address"
        }
      ],
      "stateMutability": "nonpayable",
      "type": "constructor"
    },
    {
      "inputs": [],
      "name": "CallbackNotAuthorized",
      "type": "error"
    },
    {
      "inputs": [],
      "name": "ListingDoesNotExist",
      "type": "error"
    },
    {
      "anonymous": false,
      "inputs": [
        {
          "indexed": true,
          "internalType": "uint256",
          "name": "requestId",
          "type": "uint256"
        },
        {
          "components": [
            {
              "components": [
                {
                  "internalType": "uint256",
                  "name": "x",
                  "type": "uint256"
                },
                {
                  "internalType": "uint256",
                  "name": "y",
                  "type": "uint256"
                }
              ],
              "internalType": "struct G1Point",
              "name": "random",
              "type": "tuple"
            },
            {
              "internalType": "uint256",
              "name": "cipher",
              "type": "uint256"
            },
            {
              "components": [
                {
                  "internalType": "uint256",
                  "name": "x",
                  "type": "uint256"
                },
                {
                  "internalType": "uint256",
                  "name": "y",
                  "type": "uint256"
                }
              ],
              "internalType": "struct G1Point",
              "name": "random2",
              "type": "tuple"
            },
            {
              "components": [
                {
                  "internalType": "uint256",
                  "name": "f",
                  "type": "uint256"
                },
                {
                  "internalType": "uint256",
                  "name": "e",
                  "type": "uint256"
                }
              ],
              "internalType": "struct DleqProof",
              "name": "dleq",
              "type": "tuple"
            }
          ],
          "indexed": false,
          "internalType": "struct Ciphertext",
          "name": "ciphertext",
          "type": "tuple"
        }
      ],
      "name": "ListingDecryption",
      "type": "event"
    },
    {
      "anonymous": false,
      "inputs": [
        {
          "indexed": true,
          "internalType": "address",
          "name": "seller",
          "type": "address"
        },
        {
          "indexed": true,
          "internalType": "uint256",
          "name": "cipherId",
          "type": "uint256"
        },
        {
          "indexed": false,
          "internalType": "string",
          "name": "name",
          "type": "string"
        },
        {
          "indexed": false,
          "internalType": "string",
          "name": "description",
          "type": "string"
        },
        {
          "indexed": false,
          "internalType": "uint256",
          "name": "price",
          "type": "uint256"
        },
        {
          "indexed": false,
          "internalType": "string",
          "name": "uri",
          "type": "string"
        }
      ],
      "name": "NewListing",
      "type": "event"
    },
    {
      "anonymous": false,
      "inputs": [
        {
          "indexed": true,
          "internalType": "address",
          "name": "buyer",
          "type": "address"
        },
        {
          "indexed": true,
          "internalType": "address",
          "name": "seller",
          "type": "address"
        },
        {
          "indexed": false,
          "internalType": "uint256",
          "name": "requestId",
          "type": "uint256"
        },
        {
          "indexed": false,
          "internalType": "uint256",
          "name": "cipherId",
          "type": "uint256"
        }
      ],
      "name": "NewSale",
      "type": "event"
    },
    {
      "inputs": [
        {
          "internalType": "uint256",
          "name": "cipherId",
          "type": "uint256"
        },
        {
          "components": [
            {
              "internalType": "uint256",
              "name": "x",
              "type": "uint256"
            },
            {
              "internalType": "uint256",
              "name": "y",
              "type": "uint256"
            }
          ],
          "internalType": "struct G1Point",
          "name": "buyerPublicKey",
          "type": "tuple"
        },
        {
          "internalType": "uint256",
          "name": "credId",
          "type": "uint256"
        },
        {
          "internalType": "uint256",
          "name": "merkleTreeRoot",
          "type": "uint256"
        },
        {
          "internalType": "bytes32",
          "name": "signal",
          "type": "bytes32"
        },
        {
          "internalType": "uint256",
          "name": "nullifierHash",
          "type": "uint256"
        },
        {
          "internalType": "uint256",
          "name": "externalNullifier",
          "type": "uint256"
        },
        {
          "internalType": "uint256[8]",
          "name": "proof",
          "type": "uint256[8]"
        }
      ],
      "name": "buyListing",
      "outputs": [
        {
          "internalType": "uint256",
          "name": "",
          "type": "uint256"
        }
      ],
      "stateMutability": "nonpayable",
      "type": "function"
    },
    {
      "inputs": [
        {
          "components": [
            {
              "components": [
                {
                  "internalType": "uint256",
                  "name": "x",
                  "type": "uint256"
                },
                {
                  "internalType": "uint256",
                  "name": "y",
                  "type": "uint256"
                }
              ],
              "internalType": "struct G1Point",
              "name": "random",
              "type": "tuple"
            },
            {
              "internalType": "uint256",
              "name": "cipher",
              "type": "uint256"
            },
            {
              "components": [
                {
                  "internalType": "uint256",
                  "name": "x",
                  "type": "uint256"
                },
                {
                  "internalType": "uint256",
                  "name": "y",
                  "type": "uint256"
                }
              ],
              "internalType": "struct G1Point",
              "name": "random2",
              "type": "tuple"
            },
            {
              "components": [
                {
                  "internalType": "uint256",
                  "name": "f",
                  "type": "uint256"
                },
                {
                  "internalType": "uint256",
                  "name": "e",
                  "type": "uint256"
                }
              ],
              "internalType": "struct DleqProof",
              "name": "dleq",
              "type": "tuple"
            }
          ],
          "internalType": "struct Ciphertext",
          "name": "cipher",
          "type": "tuple"
        },
        {
          "internalType": "string",
          "name": "name",
          "type": "string"
        },
        {
          "internalType": "string",
          "name": "description",
          "type": "string"
        },
        {
          "internalType": "string",
          "name": "uri",
          "type": "string"
        }
      ],
      "name": "createListing",
      "outputs": [
        {
          "internalType": "uint256",
          "name": "",
          "type": "uint256"
        }
      ],
      "stateMutability": "nonpayable",
      "type": "function"
    },
    {
      "inputs": [],
      "name": "issuer",
      "outputs": [
        {
          "internalType": "contract CredsProtocolOpenIssuer",
          "name": "",
          "type": "address"
        }
      ],
      "stateMutability": "view",
      "type": "function"
    },
    {
      "inputs": [
        {
          "internalType": "uint256",
          "name": "",
          "type": "uint256"
        }
      ],
      "name": "listings",
      "outputs": [
        {
          "internalType": "address",
          "name": "seller",
          "type": "address"
        },
        {
          "internalType": "string",
          "name": "uri",
          "type": "string"
        }
      ],
      "stateMutability": "view",
      "type": "function"
    },
    {
      "inputs": [],
      "name": "oracle",
      "outputs": [
        {
          "internalType": "contract IEncryptionOracle",
          "name": "",
          "type": "address"
        }
      ],
      "stateMutability": "view",
      "type": "function"
    },
    {
      "inputs": [
        {
          "internalType": "uint256",
          "name": "requestId",
          "type": "uint256"
        },
        {
          "components": [
            {
              "components": [
                {
                  "internalType": "uint256",
                  "name": "x",
                  "type": "uint256"
                },
                {
                  "internalType": "uint256",
                  "name": "y",
                  "type": "uint256"
                }
              ],
              "internalType": "struct G1Point",
              "name": "random",
              "type": "tuple"
            },
            {
              "internalType": "uint256",
              "name": "cipher",
              "type": "uint256"
            },
            {
              "components": [
                {
                  "internalType": "uint256",
                  "name": "x",
                  "type": "uint256"
                },
                {
                  "internalType": "uint256",
                  "name": "y",
                  "type": "uint256"
                }
              ],
              "internalType": "struct G1Point",
              "name": "random2",
              "type": "tuple"
            },
            {
              "components": [
                {
                  "internalType": "uint256",
                  "name": "f",
                  "type": "uint256"
                },
                {
                  "internalType": "uint256",
                  "name": "e",
                  "type": "uint256"
                }
              ],
              "internalType": "struct DleqProof",
              "name": "dleq",
              "type": "tuple"
            }
          ],
          "internalType": "struct Ciphertext",
          "name": "cipher",
          "type": "tuple"
        }
      ],
      "name": "oracleResult",
      "outputs": [],
      "stateMutability": "nonpayable",
      "type": "function"
    },
    {
      "inputs": [
        {
          "internalType": "address",
          "name": "dest",
          "type": "address"
        }
      ],
      "name": "payments",
      "outputs": [
        {
          "internalType": "uint256",
          "name": "",
          "type": "uint256"
        }
      ],
      "stateMutability": "view",
      "type": "function"
    },
    {
      "inputs": [],
      "name": "publicKey",
      "outputs": [
        {
          "components": [
            {
              "internalType": "uint256",
              "name": "x",
              "type": "uint256"
            },
            {
              "internalType": "uint256",
              "name": "y",
              "type": "uint256"
            }
          ],
          "internalType": "struct G1Point",
          "name": "",
          "type": "tuple"
        }
      ],
      "stateMutability": "view",
      "type": "function"
    },
    {
      "inputs": [
        {
          "internalType": "address payable",
          "name": "payee",
          "type": "address"
        }
      ],
      "name": "withdrawPayments",
      "outputs": [],
      "stateMutability": "nonpayable",
      "type": "function"
    }
  ],
  "bytecode": "0x60a06040523480156200001157600080fd5b5060405162002875380380620028758339818101604052810190620000379190620001dc565b60405162000045906200011f565b604051809103906000f08015801562000062573d6000803e3d6000fd5b5073ffffffffffffffffffffffffffffffffffffffff1660808173ffffffffffffffffffffffffffffffffffffffff1681525050816000806101000a81548173ffffffffffffffffffffffffffffffffffffffff021916908373ffffffffffffffffffffffffffffffffffffffff16021790555080600160006101000a81548173ffffffffffffffffffffffffffffffffffffffff021916908373ffffffffffffffffffffffffffffffffffffffff160217905550505062000223565b610cf38062001b8283390190565b600080fd5b600073ffffffffffffffffffffffffffffffffffffffff82169050919050565b60006200015f8262000132565b9050919050565b6000620001738262000152565b9050919050565b620001858162000166565b81146200019157600080fd5b50565b600081519050620001a5816200017a565b92915050565b620001b68162000152565b8114620001c257600080fd5b50565b600081519050620001d681620001ab565b92915050565b60008060408385031215620001f657620001f56200012d565b5b6000620002068582860162000194565b92505060206200021985828601620001c5565b9150509250929050565b60805161193c62000246600039600081816102130152610a0e015261193c6000f3fe608060405234801561001057600080fd5b50600436106100935760003560e01c806340ceeee91161006657806340ceeee91461013257806363ffab311461014e5780637dc0d1d01461016c578063de74e57b1461018a578063e2982c21146101bb57610093565b80631d1438481461009857806331b3eb94146100b657806337213faf146100d25780633bced1cf14610102575b600080fd5b6100a06101eb565b6040516100ad9190610b46565b60405180910390f35b6100d060048036038101906100cb9190610bb3565b610211565b005b6100ec60048036038101906100e79190610c69565b61029f565b6040516100f99190610d4e565b60405180910390f35b61011c60048036038101906101179190610e0c565b610493565b6040516101299190610d4e565b60405180910390f35b61014c60048036038101906101479190610ec3565b6107be565b005b61015661087f565b6040516101639190610f42565b60405180910390f35b61017461091a565b6040516101819190610f7e565b60405180910390f35b6101a4600480360381019061019f9190610f99565b61093e565b6040516101b2929190611077565b60405180910390f35b6101d560048036038101906101d091906110d3565b610a0a565b6040516101e29190610d4e565b60405180910390f35b600160009054906101000a900473ffffffffffffffffffffffffffffffffffffffff1681565b7f000000000000000000000000000000000000000000000000000000000000000073ffffffffffffffffffffffffffffffffffffffff166351cff8d9826040518263ffffffff1660e01b815260040161026a919061110f565b600060405180830381600087803b15801561028457600080fd5b505af1158015610298573d6000803e3d6000fd5b5050505050565b60008060008054906101000a900473ffffffffffffffffffffffffffffffffffffffff1673ffffffffffffffffffffffffffffffffffffffff166326639c498a8686336040518563ffffffff1660e01b81526004016103019493929190611297565b6020604051808303816000875af1158015610320573d6000803e3d6000fd5b505050506040513d601f19601f8201168201806040525081019061034491906112ee565b905060405180604001604052803373ffffffffffffffffffffffffffffffffffffffff16815260200185858080601f016020809104026020016040519081016040528093929190818152602001838380828437600081840152601f19601f820116905080830192505050505050508152506002600083815260200190815260200160002060008201518160000160006101000a81548173ffffffffffffffffffffffffffffffffffffffff021916908373ffffffffffffffffffffffffffffffffffffffff1602179055506020820151816001019081610424919061154c565b50905050803373ffffffffffffffffffffffffffffffffffffffff167f94b011296c7be987023ce1d5c54ea1402211b56a3890c71d7f022466d1e19c7b8a8a8a8a60008b8b60405161047c9796959493929190611686565b60405180910390a380915050979650505050505050565b600080600260008b81526020019081526020016000206040518060400160405290816000820160009054906101000a900473ffffffffffffffffffffffffffffffffffffffff1673ffffffffffffffffffffffffffffffffffffffff1673ffffffffffffffffffffffffffffffffffffffff16815260200160018201805461051a90611379565b80601f016020809104026020016040519081016040528092919081815260200182805461054690611379565b80156105935780601f1061056857610100808354040283529160200191610593565b820191906000526020600020905b81548152906001019060200180831161057657829003601f168201915b5050505050815250509050600073ffffffffffffffffffffffffffffffffffffffff16816000015173ffffffffffffffffffffffffffffffffffffffff1603610608576040517f6b559eca00000000000000000000000000000000000000000000000000000000815260040160405180910390fd5b600160009054906101000a900473ffffffffffffffffffffffffffffffffffffffff1673ffffffffffffffffffffffffffffffffffffffff1663691818088989898989896040518763ffffffff1660e01b815260040161066d9695949392919061170f565b600060405180830381600087803b15801561068757600080fd5b505af115801561069b573d6000803e3d6000fd5b5050505060008060009054906101000a900473ffffffffffffffffffffffffffffffffffffffff1673ffffffffffffffffffffffffffffffffffffffff1663b96650708c8c6040518363ffffffff1660e01b81526004016106fd9291906117b0565b6020604051808303816000875af115801561071c573d6000803e3d6000fd5b505050506040513d601f19601f8201168201806040525081019061074091906112ee565b9050816000015173ffffffffffffffffffffffffffffffffffffffff163373ffffffffffffffffffffffffffffffffffffffff167fb1d43218dd0959b1632f21fa3b7aba88c41347f4eda5a08894f8aad1a9c44e81838e6040516107a59291906117d9565b60405180910390a3809250505098975050505050505050565b60008054906101000a900473ffffffffffffffffffffffffffffffffffffffff1673ffffffffffffffffffffffffffffffffffffffff163373ffffffffffffffffffffffffffffffffffffffff1614610843576040517f11016bf300000000000000000000000000000000000000000000000000000000815260040160405180910390fd5b817f214b3339665a3ce77683b95ff0a22ec2f7c363198c5ac4110ab608fab3905d0a826040516108739190611802565b60405180910390a25050565b610887610aad565b60008054906101000a900473ffffffffffffffffffffffffffffffffffffffff1673ffffffffffffffffffffffffffffffffffffffff1663f20763676040518163ffffffff1660e01b81526004016040805180830381865afa1580156108f1573d6000803e3d6000fd5b505050506040513d601f19601f8201168201806040525081019061091591906118be565b905090565b60008054906101000a900473ffffffffffffffffffffffffffffffffffffffff1681565b60026020528060005260406000206000915090508060000160009054906101000a900473ffffffffffffffffffffffffffffffffffffffff169080600101805461098790611379565b80601f01602080910402602001604051908101604052809291908181526020018280546109b390611379565b8015610a005780601f106109d557610100808354040283529160200191610a00565b820191906000526020600020905b8154815290600101906020018083116109e357829003601f168201915b5050505050905082565b60007f000000000000000000000000000000000000000000000000000000000000000073ffffffffffffffffffffffffffffffffffffffff1663e3a9db1a836040518263ffffffff1660e01b8152600401610a6591906118eb565b602060405180830381865afa158015610a82573d6000803e3d6000fd5b505050506040513d601f19601f82011682018060405250810190610aa691906112ee565b9050919050565b604051806040016040528060008152602001600081525090565b600073ffffffffffffffffffffffffffffffffffffffff82169050919050565b6000819050919050565b6000610b0c610b07610b0284610ac7565b610ae7565b610ac7565b9050919050565b6000610b1e82610af1565b9050919050565b6000610b3082610b13565b9050919050565b610b4081610b25565b82525050565b6000602082019050610b5b6000830184610b37565b92915050565b6000604051905090565b600080fd5b600080fd5b6000610b8082610ac7565b9050919050565b610b9081610b75565b8114610b9b57600080fd5b50565b600081359050610bad81610b87565b92915050565b600060208284031215610bc957610bc8610b6b565b5b6000610bd784828501610b9e565b91505092915050565b600080fd5b600060e08284031215610bfb57610bfa610be0565b5b81905092915050565b600080fd5b600080fd5b600080fd5b60008083601f840112610c2957610c28610c04565b5b8235905067ffffffffffffffff811115610c4657610c45610c09565b5b602083019150836001820283011115610c6257610c61610c0e565b5b9250929050565b6000806000806000806000610140888a031215610c8957610c88610b6b565b5b6000610c978a828b01610be5565b97505060e088013567ffffffffffffffff811115610cb857610cb7610b70565b5b610cc48a828b01610c13565b965096505061010088013567ffffffffffffffff811115610ce857610ce7610b70565b5b610cf48a828b01610c13565b945094505061012088013567ffffffffffffffff811115610d1857610d17610b70565b5b610d248a828b01610c13565b925092505092959891949750929550565b6000819050919050565b610d4881610d35565b82525050565b6000602082019050610d636000830184610d3f565b92915050565b610d7281610d35565b8114610d7d57600080fd5b50565b600081359050610d8f81610d69565b92915050565b600060408284031215610dab57610daa610be0565b5b81905092915050565b6000819050919050565b610dc781610db4565b8114610dd257600080fd5b50565b600081359050610de481610dbe565b92915050565b600081905082602060080282011115610e0657610e05610c0e565b5b92915050565b600080600080600080600080610200898b031215610e2d57610e2c610b6b565b5b6000610e3b8b828c01610d80565b9850506020610e4c8b828c01610d95565b9750506060610e5d8b828c01610d80565b9650506080610e6e8b828c01610d80565b95505060a0610e7f8b828c01610dd5565b94505060c0610e908b828c01610d80565b93505060e0610ea18b828c01610d80565b925050610100610eb38b828c01610dea565b9150509295985092959890939650565b6000806101008385031215610edb57610eda610b6b565b5b6000610ee985828601610d80565b9250506020610efa85828601610be5565b9150509250929050565b610f0d81610d35565b82525050565b604082016000820151610f296000850182610f04565b506020820151610f3c6020850182610f04565b50505050565b6000604082019050610f576000830184610f13565b92915050565b6000610f6882610b13565b9050919050565b610f7881610f5d565b82525050565b6000602082019050610f936000830184610f6f565b92915050565b600060208284031215610faf57610fae610b6b565b5b6000610fbd84828501610d80565b91505092915050565b6000610fd182610ac7565b9050919050565b610fe181610fc6565b82525050565b600081519050919050565b600082825260208201905092915050565b60005b83811015611021578082015181840152602081019050611006565b60008484015250505050565b6000601f19601f8301169050919050565b600061104982610fe7565b6110538185610ff2565b9350611063818560208601611003565b61106c8161102d565b840191505092915050565b600060408201905061108c6000830185610fd8565b818103602083015261109e818461103e565b90509392505050565b6110b081610fc6565b81146110bb57600080fd5b50565b6000813590506110cd816110a7565b92915050565b6000602082840312156110e9576110e8610b6b565b5b60006110f7848285016110be565b91505092915050565b61110981610b75565b82525050565b60006020820190506111246000830184611100565b92915050565b600082905092915050565b60006111446020840184610d80565b905092915050565b6040820161115d6000830183611135565b61116a6000850182610f04565b506111786020830183611135565b6111856020850182610f04565b50505050565b600082905092915050565b604082016111a76000830183611135565b6111b46000850182610f04565b506111c26020830183611135565b6111cf6020850182610f04565b50505050565b60e082016111e6600083018361112a565b6111f3600085018261114c565b506112016040830183611135565b61120e6040850182610f04565b5061121c606083018361112a565b611229606085018261114c565b5061123760a083018361118b565b61124460a0850182611196565b50505050565b600082825260208201905092915050565b82818337600083830152505050565b6000611276838561124a565b935061128383858461125b565b61128c8361102d565b840190509392505050565b6000610120820190506112ad60008301876111d5565b81810360e08301526112c081858761126a565b90506112d0610100830184610fd8565b95945050505050565b6000815190506112e881610d69565b92915050565b60006020828403121561130457611303610b6b565b5b6000611312848285016112d9565b91505092915050565b7f4e487b7100000000000000000000000000000000000000000000000000000000600052604160045260246000fd5b7f4e487b7100000000000000000000000000000000000000000000000000000000600052602260045260246000fd5b6000600282049050600182168061139157607f821691505b6020821081036113a4576113a361134a565b5b50919050565b60008190508160005260206000209050919050565b60006020601f8301049050919050565b600082821b905092915050565b60006008830261140c7fffffffffffffffffffffffffffffffffffffffffffffffffffffffffffffffff826113cf565b61141686836113cf565b95508019841693508086168417925050509392505050565b600061144961144461143f84610d35565b610ae7565b610d35565b9050919050565b6000819050919050565b6114638361142e565b61147761146f82611450565b8484546113dc565b825550505050565b600090565b61148c61147f565b61149781848461145a565b505050565b5b818110156114bb576114b0600082611484565b60018101905061149d565b5050565b601f821115611500576114d1816113aa565b6114da846113bf565b810160208510156114e9578190505b6114fd6114f5856113bf565b83018261149c565b50505b505050565b600082821c905092915050565b600061152360001984600802611505565b1980831691505092915050565b600061153c8383611512565b9150826002028217905092915050565b61155582610fe7565b67ffffffffffffffff81111561156e5761156d61131b565b5b6115788254611379565b6115838282856114bf565b600060209050601f8311600181146115b657600084156115a4578287015190505b6115ae8582611530565b865550611616565b601f1984166115c4866113aa565b60005b828110156115ec578489015182556001820191506020850194506020810190506115c7565b868310156116095784890151611605601f891682611512565b8355505b6001600288020188555050505b505050505050565b600061162a8385610ff2565b935061163783858461125b565b6116408361102d565b840190509392505050565b6000819050919050565b600061167061166b6116668461164b565b610ae7565b610d35565b9050919050565b61168081611655565b82525050565b600060808201905081810360008301526116a181898b61161e565b905081810360208301526116b681878961161e565b90506116c56040830186611677565b81810360608301526116d881848661161e565b905098975050505050505050565b6116ef81610db4565b82525050565b82818337505050565b61170b61010083836116f5565b5050565b60006101a0820190506117256000830189610d3f565b6117326020830188610d3f565b61173f60408301876116e6565b61174c6060830186610d3f565b6117596080830185610d3f565b61176660a08301846116fe565b979650505050505050565b604082016117826000830183611135565b61178f6000850182610f04565b5061179d6020830183611135565b6117aa6020850182610f04565b50505050565b60006060820190506117c56000830185610d3f565b6117d26020830184611771565b9392505050565b60006040820190506117ee6000830185610d3f565b6117fb6020830184610d3f565b9392505050565b600060e08201905061181760008301846111d5565b92915050565b600080fd5b61182b8261102d565b810181811067ffffffffffffffff8211171561184a5761184961131b565b5b80604052505050565b600061185d610b61565b90506118698282611822565b919050565b6000604082840312156118845761188361181d565b5b61188e6040611853565b9050600061189e848285016112d9565b60008301525060206118b2848285016112d9565b60208301525092915050565b6000604082840312156118d4576118d3610b6b565b5b60006118e28482850161186e565b91505092915050565b60006020820190506119006000830184610fd8565b9291505056fea2646970667358221220219755e8094ff83a5e42f333262a5dc7e8c877bc7d6e42f11d5c8c807407a73764736f6c63430008110033608060405234801561001057600080fd5b5061002d61002261003260201b60201c565b61003a60201b60201c565b6100fe565b600033905090565b60008060009054906101000a900473ffffffffffffffffffffffffffffffffffffffff169050816000806101000a81548173ffffffffffffffffffffffffffffffffffffffff021916908373ffffffffffffffffffffffffffffffffffffffff1602179055508173ffffffffffffffffffffffffffffffffffffffff168173ffffffffffffffffffffffffffffffffffffffff167f8be0079c531659141344cd1fd0a4f28419497f9722a3daafe3b4186f6b6457e060405160405180910390a35050565b610be68061010d6000396000f3fe6080604052600436106100555760003560e01c806351cff8d91461005a578063715018a6146100835780638da5cb5b1461009a578063e3a9db1a146100c5578063f2fde38b14610102578063f340fa011461012b575b600080fd5b34801561006657600080fd5b50610081600480360381019061007c9190610804565b610147565b005b34801561008f57600080fd5b506100986102c7565b005b3480156100a657600080fd5b506100af61034f565b6040516100bc9190610852565b60405180910390f35b3480156100d157600080fd5b506100ec60048036038101906100e79190610899565b610378565b6040516100f991906108df565b60405180910390f35b34801561010e57600080fd5b5061012960048036038101906101249190610899565b6103c1565b005b61014560048036038101906101409190610899565b6104b8565b005b61014f6105e1565b73ffffffffffffffffffffffffffffffffffffffff1661016d61034f565b73ffffffffffffffffffffffffffffffffffffffff16146101c3576040517f08c379a00000000000000000000000000000000000000000000000000000000081526004016101ba90610957565b60405180910390fd5b6000600160008373ffffffffffffffffffffffffffffffffffffffff1673ffffffffffffffffffffffffffffffffffffffff1681526020019081526020016000205490506000600160008473ffffffffffffffffffffffffffffffffffffffff1673ffffffffffffffffffffffffffffffffffffffff16815260200190815260200160002081905550610275818373ffffffffffffffffffffffffffffffffffffffff166105e990919063ffffffff16565b8173ffffffffffffffffffffffffffffffffffffffff167f7084f5476618d8e60b11ef0d7d3f06914655adb8793e28ff7f018d4c76d505d5826040516102bb91906108df565b60405180910390a25050565b6102cf6105e1565b73ffffffffffffffffffffffffffffffffffffffff166102ed61034f565b73ffffffffffffffffffffffffffffffffffffffff1614610343576040517f08c379a000000000000000000000000000000000000000000000000000000000815260040161033a90610957565b60405180910390fd5b61034d60006106dd565b565b60008060009054906101000a900473ffffffffffffffffffffffffffffffffffffffff16905090565b6000600160008373ffffffffffffffffffffffffffffffffffffffff1673ffffffffffffffffffffffffffffffffffffffff168152602001908152602001600020549050919050565b6103c96105e1565b73ffffffffffffffffffffffffffffffffffffffff166103e761034f565b73ffffffffffffffffffffffffffffffffffffffff161461043d576040517f08c379a000000000000000000000000000000000000000000000000000000000815260040161043490610957565b60405180910390fd5b600073ffffffffffffffffffffffffffffffffffffffff168173ffffffffffffffffffffffffffffffffffffffff16036104ac576040517f08c379a00000000000000000000000000000000000000000000000000000000081526004016104a3906109e9565b60405180910390fd5b6104b5816106dd565b50565b6104c06105e1565b73ffffffffffffffffffffffffffffffffffffffff166104de61034f565b73ffffffffffffffffffffffffffffffffffffffff1614610534576040517f08c379a000000000000000000000000000000000000000000000000000000000815260040161052b90610957565b60405180910390fd5b600034905080600160008473ffffffffffffffffffffffffffffffffffffffff1673ffffffffffffffffffffffffffffffffffffffff16815260200190815260200160002060008282546105889190610a38565b925050819055508173ffffffffffffffffffffffffffffffffffffffff167f2da466a7b24304f47e87fa2e1e5a81b9831ce54fec19055ce277ca2f39ba42c4826040516105d591906108df565b60405180910390a25050565b600033905090565b8047101561062c576040517f08c379a000000000000000000000000000000000000000000000000000000000815260040161062390610ab8565b60405180910390fd5b60008273ffffffffffffffffffffffffffffffffffffffff168260405161065290610b09565b60006040518083038185875af1925050503d806000811461068f576040519150601f19603f3d011682016040523d82523d6000602084013e610694565b606091505b50509050806106d8576040517f08c379a00000000000000000000000000000000000000000000000000000000081526004016106cf90610b90565b60405180910390fd5b505050565b60008060009054906101000a900473ffffffffffffffffffffffffffffffffffffffff169050816000806101000a81548173ffffffffffffffffffffffffffffffffffffffff021916908373ffffffffffffffffffffffffffffffffffffffff1602179055508173ffffffffffffffffffffffffffffffffffffffff168173ffffffffffffffffffffffffffffffffffffffff167f8be0079c531659141344cd1fd0a4f28419497f9722a3daafe3b4186f6b6457e060405160405180910390a35050565b600080fd5b600073ffffffffffffffffffffffffffffffffffffffff82169050919050565b60006107d1826107a6565b9050919050565b6107e1816107c6565b81146107ec57600080fd5b50565b6000813590506107fe816107d8565b92915050565b60006020828403121561081a576108196107a1565b5b6000610828848285016107ef565b91505092915050565b600061083c826107a6565b9050919050565b61084c81610831565b82525050565b60006020820190506108676000830184610843565b92915050565b61087681610831565b811461088157600080fd5b50565b6000813590506108938161086d565b92915050565b6000602082840312156108af576108ae6107a1565b5b60006108bd84828501610884565b91505092915050565b6000819050919050565b6108d9816108c6565b82525050565b60006020820190506108f460008301846108d0565b92915050565b600082825260208201905092915050565b7f4f776e61626c653a2063616c6c6572206973206e6f7420746865206f776e6572600082015250565b60006109416020836108fa565b915061094c8261090b565b602082019050919050565b6000602082019050818103600083015261097081610934565b9050919050565b7f4f776e61626c653a206e6577206f776e657220697320746865207a65726f206160008201527f6464726573730000000000000000000000000000000000000000000000000000602082015250565b60006109d36026836108fa565b91506109de82610977565b604082019050919050565b60006020820190508181036000830152610a02816109c6565b9050919050565b7f4e487b7100000000000000000000000000000000000000000000000000000000600052601160045260246000fd5b6000610a43826108c6565b9150610a4e836108c6565b9250828201905080821115610a6657610a65610a09565b5b92915050565b7f416464726573733a20696e73756666696369656e742062616c616e6365000000600082015250565b6000610aa2601d836108fa565b9150610aad82610a6c565b602082019050919050565b60006020820190508181036000830152610ad181610a95565b9050919050565b600081905092915050565b50565b6000610af3600083610ad8565b9150610afe82610ae3565b600082019050919050565b6000610b1482610ae6565b9150819050919050565b7f416464726573733a20756e61626c6520746f2073656e642076616c75652c207260008201527f6563697069656e74206d61792068617665207265766572746564000000000000602082015250565b6000610b7a603a836108fa565b9150610b8582610b1e565b604082019050919050565b60006020820190508181036000830152610ba981610b6d565b905091905056fea2646970667358221220fe2bdb0ac689a625a75927da7156320149ec28efa72d6ee57ecb18c96c60712c64736f6c63430008110033",
  "linkReferences": {},
  "deployedLinkReferences": {}
}