{
  "_format": "hh-sol-artifact-1",
  "contractName": "CredsProtocolRegistry",
  "sourceName": "contracts/base/CredsProtocolRegistry.sol",
  "abi": [
    {
      "inputs": [
        {
          "internalType": "address",
          "name": "",
          "type": "address"
        }
      ],
      "name": "isRegisteredIssuer",
      "outputs": [
        {
          "internalType": "bool",
          "name": "",
          "type": "bool"
        }
      ],
      "stateMutability": "view",
      "type": "function"
    },
    {
      "inputs": [
        {
          "internalType": "address",
          "name": "",
          "type": "address"
        },
        {
          "internalType": "uint256",
          "name": "",
          "type": "uint256"
        }
      ],
      "name": "issuerContractAddress",
      "outputs": [
        {
          "internalType": "address",
          "name": "",
          "type": "address"
        }
      ],
      "stateMutability": "view",
      "type": "function"
    },
    {
      "inputs": [
        {
          "internalType": "address",
          "name": "_issuer",
          "type": "address"
        },
        {
          "internalType": "address",
          "name": "_issuerContractAddress",
          "type": "address"
        }
      ],
      "name": "registerIssuer",
      "outputs": [],
      "stateMutability": "nonpayable",
      "type": "function"
    }
  ],
  "bytecode": "0x608060405234801561001057600080fd5b50610406806100206000396000f3fe608060405234801561001057600080fd5b50600436106100415760003560e01c80632d33d7d5146100465780635a235e1314610076578063c2551c82146100a6575b600080fd5b610060600480360381019061005b919061028d565b6100c2565b60405161006d91906102d5565b60405180910390f35b610090600480360381019061008b9190610326565b6100e2565b60405161009d9190610375565b60405180910390f35b6100c060048036038101906100bb9190610390565b610130565b005b60016020528060005260406000206000915054906101000a900460ff1681565b600060205281600052604060002081815481106100fe57600080fd5b906000526020600020016000915091509054906101000a900473ffffffffffffffffffffffffffffffffffffffff1681565b6000808373ffffffffffffffffffffffffffffffffffffffff1673ffffffffffffffffffffffffffffffffffffffff168152602001908152602001600020819080600181540180825580915050600190039060005260206000200160009091909190916101000a81548173ffffffffffffffffffffffffffffffffffffffff021916908373ffffffffffffffffffffffffffffffffffffffff16021790555060018060008473ffffffffffffffffffffffffffffffffffffffff1673ffffffffffffffffffffffffffffffffffffffff16815260200190815260200160002060006101000a81548160ff0219169083151502179055505050565b600080fd5b600073ffffffffffffffffffffffffffffffffffffffff82169050919050565b600061025a8261022f565b9050919050565b61026a8161024f565b811461027557600080fd5b50565b60008135905061028781610261565b92915050565b6000602082840312156102a3576102a261022a565b5b60006102b184828501610278565b91505092915050565b60008115159050919050565b6102cf816102ba565b82525050565b60006020820190506102ea60008301846102c6565b92915050565b6000819050919050565b610303816102f0565b811461030e57600080fd5b50565b600081359050610320816102fa565b92915050565b6000806040838503121561033d5761033c61022a565b5b600061034b85828601610278565b925050602061035c85828601610311565b9150509250929050565b61036f8161024f565b82525050565b600060208201905061038a6000830184610366565b92915050565b600080604083850312156103a7576103a661022a565b5b60006103b585828601610278565b92505060206103c685828601610278565b915050925092905056fea26469706673582212205b24c939abdff4775e8bab40a40a9aa9bc691d4250c07ee6d9eb9a366859a4c264736f6c63430008110033",
  "linkReferences": {},
  "deployedLinkReferences": {}
}