{
  "_format": "hh-sol-artifact-1",
  "contractName": "IncrementalQuinTreeTest",
  "sourceName": "contracts/zk-kit/incremental-merkle-tree.sol/test/IncrementalQuinTreeTest.sol",
  "abi": [
    {
      "anonymous": false,
      "inputs": [
        {
          "indexed": true,
          "internalType": "bytes32",
          "name": "treeId",
          "type": "bytes32"
        },
        {
          "indexed": false,
          "internalType": "uint256",
          "name": "leaf",
          "type": "uint256"
        },
        {
          "indexed": false,
          "internalType": "uint256",
          "name": "root",
          "type": "uint256"
        }
      ],
      "name": "LeafInserted",
      "type": "event"
    },
    {
      "anonymous": false,
      "inputs": [
        {
          "indexed": true,
          "internalType": "bytes32",
          "name": "treeId",
          "type": "bytes32"
        },
        {
          "indexed": false,
          "internalType": "uint256",
          "name": "leaf",
          "type": "uint256"
        },
        {
          "indexed": false,
          "internalType": "uint256",
          "name": "root",
          "type": "uint256"
        }
      ],
      "name": "LeafRemoved",
      "type": "event"
    },
    {
      "anonymous": false,
      "inputs": [
        {
          "indexed": true,
          "internalType": "bytes32",
          "name": "treeId",
          "type": "bytes32"
        },
        {
          "indexed": false,
          "internalType": "uint256",
          "name": "leaf",
          "type": "uint256"
        },
        {
          "indexed": false,
          "internalType": "uint256",
          "name": "root",
          "type": "uint256"
        }
      ],
      "name": "LeafUpdated",
      "type": "event"
    },
    {
      "anonymous": false,
      "inputs": [
        {
          "indexed": false,
          "internalType": "bytes32",
          "name": "id",
          "type": "bytes32"
        },
        {
          "indexed": false,
          "internalType": "uint256",
          "name": "depth",
          "type": "uint256"
        }
      ],
      "name": "TreeCreated",
      "type": "event"
    },
    {
      "inputs": [
        {
          "internalType": "bytes32",
          "name": "_id",
          "type": "bytes32"
        },
        {
          "internalType": "uint256",
          "name": "_depth",
          "type": "uint256"
        }
      ],
      "name": "createTree",
      "outputs": [],
      "stateMutability": "nonpayable",
      "type": "function"
    },
    {
      "inputs": [
        {
          "internalType": "bytes32",
          "name": "_treeId",
          "type": "bytes32"
        },
        {
          "internalType": "uint256",
          "name": "_leaf",
          "type": "uint256"
        }
      ],
      "name": "insertLeaf",
      "outputs": [],
      "stateMutability": "nonpayable",
      "type": "function"
    },
    {
      "inputs": [
        {
          "internalType": "bytes32",
          "name": "_treeId",
          "type": "bytes32"
        },
        {
          "internalType": "uint256",
          "name": "_leaf",
          "type": "uint256"
        },
        {
          "internalType": "uint256[4][]",
          "name": "_proofSiblings",
          "type": "uint256[4][]"
        },
        {
          "internalType": "uint8[]",
          "name": "_proofPathIndices",
          "type": "uint8[]"
        }
      ],
      "name": "removeLeaf",
      "outputs": [],
      "stateMutability": "nonpayable",
      "type": "function"
    },
    {
      "inputs": [
        {
          "internalType": "bytes32",
          "name": "",
          "type": "bytes32"
        }
      ],
      "name": "trees",
      "outputs": [
        {
          "internalType": "uint256",
          "name": "depth",
          "type": "uint256"
        },
        {
          "internalType": "uint256",
          "name": "root",
          "type": "uint256"
        },
        {
          "internalType": "uint256",
          "name": "numberOfLeaves",
          "type": "uint256"
        }
      ],
      "stateMutability": "view",
      "type": "function"
    },
    {
      "inputs": [
        {
          "internalType": "bytes32",
          "name": "_treeId",
          "type": "bytes32"
        },
        {
          "internalType": "uint256",
          "name": "_leaf",
          "type": "uint256"
        },
        {
          "internalType": "uint256",
          "name": "_newLeaf",
          "type": "uint256"
        },
        {
          "internalType": "uint256[4][]",
          "name": "_proofSiblings",
          "type": "uint256[4][]"
        },
        {
          "internalType": "uint8[]",
          "name": "_proofPathIndices",
          "type": "uint8[]"
        }
      ],
      "name": "updateLeaf",
      "outputs": [],
      "stateMutability": "nonpayable",
      "type": "function"
    }
  ],
  "bytecode": "0x608060405234801561001057600080fd5b50610e13806100206000396000f3fe608060405234801561001057600080fd5b50600436106100575760003560e01c8063409bf2081461005c578063692cc4b5146100785780636e9ffdf9146100945780637385d047146100b05780637fb345f2146100cc575b600080fd5b610076600480360381019061007191906106fd565b6100fe565b005b610092600480360381019061008d91906107a4565b610231565b005b6100ae60048036038101906100a99190610860565b610367565b005b6100ca60048036038101906100c59190610860565b61047b565b005b6100e660048036038101906100e191906108a0565b6105a2565b6040516100f5939291906108dc565b60405180910390f35b60008060008881526020019081526020016000206000015403610156576040517f08c379a000000000000000000000000000000000000000000000000000000000815260040161014d90610996565b60405180910390fd5b60008087815260200190815260200160002073__$56879a7430f0c87442d2281820c5c9da90$__6305d3699a909187878787876040518763ffffffff1660e01b81526004016101aa96959493929190610b89565b60006040518083038186803b1580156101c257600080fd5b505af41580156101d6573d6000803e3d6000fd5b50505050857f2ae0d3bf090d30a4d7382ef854bf510cf63f47e072c94e8347a0d5afd296ff10866000808a815260200190815260200160002060010154604051610221929190610be0565b60405180910390a2505050505050565b60008060008981526020019081526020016000206000015403610289576040517f08c379a000000000000000000000000000000000000000000000000000000000815260040161028090610996565b60405180910390fd5b60008088815260200190815260200160002073__$56879a7430f0c87442d2281820c5c9da90$__63c2bfa9b290918888888888886040518863ffffffff1660e01b81526004016102df9796959493929190610c09565b60006040518083038186803b1580156102f757600080fd5b505af415801561030b573d6000803e3d6000fd5b50505050867f4523b516e02f0da379311b8942e433c763e813ad686bbb9aff0c7ef14379cbbe866000808b815260200190815260200160002060010154604051610356929190610be0565b60405180910390a250505050505050565b600080600084815260200190815260200160002060000154146103bf576040517f08c379a00000000000000000000000000000000000000000000000000000000081526004016103b690610ce0565b60405180910390fd5b60008083815260200190815260200160002073__$56879a7430f0c87442d2281820c5c9da90$__631095fbb490918360006040518463ffffffff1660e01b815260040161040e93929190610d45565b60006040518083038186803b15801561042657600080fd5b505af415801561043a573d6000803e3d6000fd5b505050507fe67226659469a0b7b1733a692c01b145aeaed50b4debfde8260883619e491655828260405161046f929190610d8b565b60405180910390a15050565b600080600084815260200190815260200160002060000154036104d3576040517f08c379a00000000000000000000000000000000000000000000000000000000081526004016104ca90610996565b60405180910390fd5b60008083815260200190815260200160002073__$56879a7430f0c87442d2281820c5c9da90$__63168703fa9091836040518363ffffffff1660e01b815260040161051f929190610db4565b60006040518083038186803b15801561053757600080fd5b505af415801561054b573d6000803e3d6000fd5b50505050817faf94f1a620faf44b2d0656642b2d31b0bfd4aa4d8471cbb1ba0087e5d0a61d578260008086815260200190815260200160002060010154604051610596929190610be0565b60405180910390a25050565b60006020528060005260406000206000915090508060000154908060010154908060020154905083565b600080fd5b600080fd5b6000819050919050565b6105e9816105d6565b81146105f457600080fd5b50565b600081359050610606816105e0565b92915050565b6000819050919050565b61061f8161060c565b811461062a57600080fd5b50565b60008135905061063c81610616565b92915050565b600080fd5b600080fd5b600080fd5b60008083601f84011261066757610666610642565b5b8235905067ffffffffffffffff81111561068457610683610647565b5b6020830191508360808202830111156106a05761069f61064c565b5b9250929050565b60008083601f8401126106bd576106bc610642565b5b8235905067ffffffffffffffff8111156106da576106d9610647565b5b6020830191508360208202830111156106f6576106f561064c565b5b9250929050565b6000806000806000806080878903121561071a576107196105cc565b5b600061072889828a016105f7565b965050602061073989828a0161062d565b955050604087013567ffffffffffffffff81111561075a576107596105d1565b5b61076689828a01610651565b9450945050606087013567ffffffffffffffff811115610789576107886105d1565b5b61079589828a016106a7565b92509250509295509295509295565b600080600080600080600060a0888a0312156107c3576107c26105cc565b5b60006107d18a828b016105f7565b97505060206107e28a828b0161062d565b96505060406107f38a828b0161062d565b955050606088013567ffffffffffffffff811115610814576108136105d1565b5b6108208a828b01610651565b9450945050608088013567ffffffffffffffff811115610843576108426105d1565b5b61084f8a828b016106a7565b925092505092959891949750929550565b60008060408385031215610877576108766105cc565b5b6000610885858286016105f7565b92505060206108968582860161062d565b9150509250929050565b6000602082840312156108b6576108b56105cc565b5b60006108c4848285016105f7565b91505092915050565b6108d68161060c565b82525050565b60006060820190506108f160008301866108cd565b6108fe60208301856108cd565b61090b60408301846108cd565b949350505050565b600082825260208201905092915050565b7f496e6372656d656e74616c5175696e54726565546573743a207472656520646f60008201527f6573206e6f742065786973740000000000000000000000000000000000000000602082015250565b6000610980602c83610913565b915061098b82610924565b604082019050919050565b600060208201905081810360008301526109af81610973565b9050919050565b8082525050565b6109c68161060c565b82525050565b600082825260208201905092915050565b6000819050919050565b82818337505050565b6109fc608083836109e7565b5050565b6000610a0c83836109f0565b60808301905092915050565b600082905092915050565b6000608082019050919050565b6000610a3c83856109cc565b9350610a47826109dd565b8060005b85811015610a8057610a5d8284610a18565b610a678882610a00565b9750610a7283610a23565b925050600181019050610a4b565b5085925050509392505050565b600082825260208201905092915050565b6000819050919050565b600060ff82169050919050565b610abe81610aa8565b82525050565b6000610ad08383610ab5565b60208301905092915050565b610ae581610aa8565b8114610af057600080fd5b50565b600081359050610b0281610adc565b92915050565b6000610b176020840184610af3565b905092915050565b6000602082019050919050565b6000610b388385610a8d565b9350610b4382610a9e565b8060005b85811015610b7c57610b598284610b08565b610b638882610ac4565b9750610b6e83610b1f565b925050600181019050610b47565b5085925050509392505050565b6000608082019050610b9e60008301896109b6565b610bab60208301886109bd565b8181036040830152610bbe818688610a30565b90508181036060830152610bd3818486610b2c565b9050979650505050505050565b6000604082019050610bf560008301856108cd565b610c0260208301846108cd565b9392505050565b600060a082019050610c1e600083018a6109b6565b610c2b60208301896109bd565b610c3860408301886109bd565b8181036060830152610c4b818688610a30565b90508181036080830152610c60818486610b2c565b905098975050505050505050565b7f496e6372656d656e74616c5175696e54726565546573743a207472656520616c60008201527f7265616479206578697374730000000000000000000000000000000000000000602082015250565b6000610cca602c83610913565b9150610cd582610c6e565b604082019050919050565b60006020820190508181036000830152610cf981610cbd565b9050919050565b6000819050919050565b6000819050919050565b6000610d2f610d2a610d2584610d00565b610d0a565b61060c565b9050919050565b610d3f81610d14565b82525050565b6000606082019050610d5a60008301866109b6565b610d6760208301856109bd565b610d746040830184610d36565b949350505050565b610d85816105d6565b82525050565b6000604082019050610da06000830185610d7c565b610dad60208301846108cd565b9392505050565b6000604082019050610dc960008301856109b6565b610dd660208301846109bd565b939250505056fea26469706673582212209ddd120ad23e48e6d8ce4ed970434345d7599a2dc83283468377b376a1689d0164736f6c63430008110033",
  "linkReferences": {
    "contracts/zk-kit/incremental-merkle-tree.sol/IncrementalQuinTree.sol": {
      "IncrementalQuinTree": [
        {
          "length": 20,
          "start": 394
        },
        {
          "length": 20,
          "start": 701
        },
        {
          "length": 20,
          "start": 1011
        },
        {
          "length": 20,
          "start": 1287
        }
      ]
    }
  },
  "deployedLinkReferences": {
    "contracts/zk-kit/incremental-merkle-tree.sol/IncrementalQuinTree.sol": {
      "IncrementalQuinTree": [
        {
          "length": 20,
          "start": 362
        },
        {
          "length": 20,
          "start": 669
        },
        {
          "length": 20,
          "start": 979
        },
        {
          "length": 20,
          "start": 1255
        }
      ]
    }
  }
}