{
  "_format": "hh-sol-artifact-1",
  "contractName": "CredsIssuer",
  "sourceName": "contracts/CredsIssuer.sol",
  "abi": [
    {
      "inputs": [
        {
          "components": [
            {
              "internalType": "address",
              "name": "contractAddress",
              "type": "address"
            },
            {
              "internalType": "uint256",
              "name": "merkleTreeDepth",
              "type": "uint256"
            }
          ],
          "internalType": "struct ICredential.Verifier[]",
          "name": "_verifiers",
          "type": "tuple[]"
        },
        {
          "internalType": "address",
          "name": "_issuer",
          "type": "address"
        },
        {
          "internalType": "string",
          "name": "_issuerName",
          "type": "string"
        },
        {
          "internalType": "string",
          "name": "_issuerSymbol",
          "type": "string"
        }
      ],
      "stateMutability": "nonpayable",
      "type": "constructor"
    },
    {
      "inputs": [],
      "name": "Credential__CallerIsNotTheCredIssuer",
      "type": "error"
    },
    {
      "inputs": [],
      "name": "Credential__CredAlreadyExists",
      "type": "error"
    },
    {
      "inputs": [],
      "name": "Credential__CredDoesNotExist",
      "type": "error"
    },
    {
      "inputs": [],
      "name": "Credential__CredIdIsNotLessThanSnarkScalarField",
      "type": "error"
    },
    {
      "inputs": [],
      "name": "Credential__MerkleTreeDepthIsNotSupported",
      "type": "error"
    },
    {
      "inputs": [],
      "name": "Credential__MerkleTreeRootIsExpired",
      "type": "error"
    },
    {
      "inputs": [],
      "name": "Credential__MerkleTreeRootIsNotPartOfTheCred",
      "type": "error"
    },
    {
      "inputs": [],
      "name": "Credential__YouAreUsingTheSameNillifierTwice",
      "type": "error"
    },
    {
      "anonymous": false,
      "inputs": [
        {
          "indexed": true,
          "internalType": "address",
          "name": "issuer",
          "type": "address"
        },
        {
          "indexed": true,
          "internalType": "uint256",
          "name": "credId",
          "type": "uint256"
        },
        {
          "indexed": false,
          "internalType": "uint256",
          "name": "merkleTreeDepth",
          "type": "uint256"
        },
        {
          "indexed": false,
          "internalType": "uint256",
          "name": "zeroValue",
          "type": "uint256"
        }
      ],
      "name": "CredCreated",
      "type": "event"
    },
    {
      "anonymous": false,
      "inputs": [
        {
          "indexed": true,
          "internalType": "uint256",
          "name": "credId",
          "type": "uint256"
        },
        {
          "indexed": false,
          "internalType": "uint256",
          "name": "index",
          "type": "uint256"
        },
        {
          "indexed": false,
          "internalType": "uint256",
          "name": "identityCommitment",
          "type": "uint256"
        },
        {
          "indexed": false,
          "internalType": "uint256",
          "name": "merkleTreeRoot",
          "type": "uint256"
        }
      ],
      "name": "IdentityAdded",
      "type": "event"
    },
    {
      "anonymous": false,
      "inputs": [
        {
          "indexed": true,
          "internalType": "uint256",
          "name": "credId",
          "type": "uint256"
        },
        {
          "indexed": false,
          "internalType": "uint256",
          "name": "index",
          "type": "uint256"
        },
        {
          "indexed": false,
          "internalType": "uint256",
          "name": "identityCommitment",
          "type": "uint256"
        },
        {
          "indexed": false,
          "internalType": "uint256",
          "name": "merkleTreeRoot",
          "type": "uint256"
        }
      ],
      "name": "IdentityRemoved",
      "type": "event"
    },
    {
      "anonymous": false,
      "inputs": [
        {
          "indexed": true,
          "internalType": "uint256",
          "name": "credId",
          "type": "uint256"
        },
        {
          "indexed": false,
          "internalType": "uint256",
          "name": "index",
          "type": "uint256"
        },
        {
          "indexed": false,
          "internalType": "uint256",
          "name": "identityCommitment",
          "type": "uint256"
        },
        {
          "indexed": false,
          "internalType": "uint256",
          "name": "newIdentityCommitment",
          "type": "uint256"
        },
        {
          "indexed": false,
          "internalType": "uint256",
          "name": "merkleTreeRoot",
          "type": "uint256"
        }
      ],
      "name": "IdentityUpdated",
      "type": "event"
    },
    {
      "anonymous": false,
      "inputs": [
        {
          "indexed": false,
          "internalType": "uint256",
          "name": "nullifierHash",
          "type": "uint256"
        }
      ],
      "name": "NullifierHashAdded",
      "type": "event"
    },
    {
      "anonymous": false,
      "inputs": [
        {
          "indexed": true,
          "internalType": "uint256",
          "name": "credId",
          "type": "uint256"
        },
        {
          "indexed": false,
          "internalType": "uint256",
          "name": "merkleTreeRoot",
          "type": "uint256"
        },
        {
          "indexed": false,
          "internalType": "uint256",
          "name": "externalNullifier",
          "type": "uint256"
        },
        {
          "indexed": false,
          "internalType": "uint256",
          "name": "nullifierHash",
          "type": "uint256"
        },
        {
          "indexed": false,
          "internalType": "bytes32",
          "name": "signal",
          "type": "bytes32"
        }
      ],
      "name": "ProofVerified",
      "type": "event"
    },
    {
      "anonymous": false,
      "inputs": [
        {
          "indexed": true,
          "internalType": "address",
          "name": "issuerAddress",
          "type": "address"
        },
        {
          "indexed": true,
          "internalType": "string",
          "name": "issuerName",
          "type": "string"
        },
        {
          "indexed": true,
          "internalType": "string",
          "name": "issuerSymbol",
          "type": "string"
        }
      ],
      "name": "issuerRegistered",
      "type": "event"
    },
    {
      "inputs": [
        {
          "internalType": "uint256",
          "name": "",
          "type": "uint256"
        }
      ],
      "name": "creds",
      "outputs": [
        {
          "internalType": "address",
          "name": "admin",
          "type": "address"
        },
        {
          "internalType": "string",
          "name": "credURI",
          "type": "string"
        },
        {
          "internalType": "uint256",
          "name": "merkleRootDuration",
          "type": "uint256"
        }
      ],
      "stateMutability": "view",
      "type": "function"
    },
    {
      "inputs": [],
      "name": "credsIssuedCount",
      "outputs": [
        {
          "internalType": "uint256",
          "name": "",
          "type": "uint256"
        }
      ],
      "stateMutability": "view",
      "type": "function"
    },
    {
      "inputs": [],
      "name": "credsIssuer",
      "outputs": [
        {
          "internalType": "address",
          "name": "",
          "type": "address"
        }
      ],
      "stateMutability": "view",
      "type": "function"
    },
    {
      "inputs": [],
      "name": "credsProtocolRegistry",
      "outputs": [
        {
          "internalType": "address",
          "name": "",
          "type": "address"
        }
      ],
      "stateMutability": "view",
      "type": "function"
    },
    {
      "inputs": [
        {
          "internalType": "uint256",
          "name": "credID",
          "type": "uint256"
        }
      ],
      "name": "getMerkleTreeDepth",
      "outputs": [
        {
          "internalType": "uint256",
          "name": "",
          "type": "uint256"
        }
      ],
      "stateMutability": "view",
      "type": "function"
    },
    {
      "inputs": [
        {
          "internalType": "uint256",
          "name": "credID",
          "type": "uint256"
        }
      ],
      "name": "getMerkleTreeRoot",
      "outputs": [
        {
          "internalType": "uint256",
          "name": "",
          "type": "uint256"
        }
      ],
      "stateMutability": "view",
      "type": "function"
    },
    {
      "inputs": [
        {
          "internalType": "uint256",
          "name": "credID",
          "type": "uint256"
        }
      ],
      "name": "getNumberOfMerkleTreeLeaves",
      "outputs": [
        {
          "internalType": "uint256",
          "name": "",
          "type": "uint256"
        }
      ],
      "stateMutability": "view",
      "type": "function"
    },
    {
      "inputs": [],
      "name": "issuerName",
      "outputs": [
        {
          "internalType": "string",
          "name": "",
          "type": "string"
        }
      ],
      "stateMutability": "view",
      "type": "function"
    },
    {
      "inputs": [],
      "name": "issuerSymbol",
      "outputs": [
        {
          "internalType": "string",
          "name": "",
          "type": "string"
        }
      ],
      "stateMutability": "view",
      "type": "function"
    },
    {
      "inputs": [
        {
          "internalType": "uint256",
          "name": "",
          "type": "uint256"
        }
      ],
      "name": "verifiers",
      "outputs": [
        {
          "internalType": "contract IVerifier",
          "name": "",
          "type": "address"
        }
      ],
      "stateMutability": "view",
      "type": "function"
    }
  ],
  "bytecode": "0x608060405273414b893562f46f5180971c3389784a447581b2d3600560006101000a81548173ffffffffffffffffffffffffffffffffffffffff021916908373ffffffffffffffffffffffffffffffffffffffff1602179055503480156200006657600080fd5b50604051620012dc380380620012dc83398181016040528101906200008c919062000624565b60005b84518160ff1610156200014257848160ff1681518110620000b557620000b4620006f3565b5b60200260200101516000015160066000878460ff1681518110620000de57620000dd620006f3565b5b602002602001015160200151815260200190815260200160002060006101000a81548173ffffffffffffffffffffffffffffffffffffffff021916908373ffffffffffffffffffffffffffffffffffffffff1602179055508060010190506200008f565b5082600160006101000a81548173ffffffffffffffffffffffffffffffffffffffff021916908373ffffffffffffffffffffffffffffffffffffffff160217905550816002908162000195919062000963565b508060039081620001a7919062000963565b50600560009054906101000a900473ffffffffffffffffffffffffffffffffffffffff1673ffffffffffffffffffffffffffffffffffffffff1663c2551c8284306040518363ffffffff1660e01b81526004016200020792919062000a5b565b600060405180830381600087803b1580156200022257600080fd5b505af115801562000237573d6000803e3d6000fd5b50505050806040516200024b919062000aca565b60405180910390208260405162000263919062000aca565b60405180910390208473ffffffffffffffffffffffffffffffffffffffff167ff51d47712d8574bf3715cf1db64ebb5a5c264fe57ff450433484f786f742ecec60405160405180910390a45050505062000ae3565b6000604051905090565b600080fd5b600080fd5b600080fd5b6000601f19601f8301169050919050565b7f4e487b7100000000000000000000000000000000000000000000000000000000600052604160045260246000fd5b6200031c82620002d1565b810181811067ffffffffffffffff821117156200033e576200033d620002e2565b5b80604052505050565b600062000353620002b8565b905062000361828262000311565b919050565b600067ffffffffffffffff821115620003845762000383620002e2565b5b602082029050602081019050919050565b600080fd5b600080fd5b600073ffffffffffffffffffffffffffffffffffffffff82169050919050565b6000620003cc826200039f565b9050919050565b620003de81620003bf565b8114620003ea57600080fd5b50565b600081519050620003fe81620003d3565b92915050565b6000819050919050565b620004198162000404565b81146200042557600080fd5b50565b60008151905062000439816200040e565b92915050565b6000604082840312156200045857620004576200039a565b5b62000464604062000347565b905060006200047684828501620003ed565b60008301525060206200048c8482850162000428565b60208301525092915050565b6000620004af620004a98462000366565b62000347565b90508083825260208201905060408402830185811115620004d557620004d462000395565b5b835b81811015620005025780620004ed88826200043f565b845260208401935050604081019050620004d7565b5050509392505050565b600082601f830112620005245762000523620002cc565b5b81516200053684826020860162000498565b91505092915050565b600080fd5b600067ffffffffffffffff821115620005625762000561620002e2565b5b6200056d82620002d1565b9050602081019050919050565b60005b838110156200059a5780820151818401526020810190506200057d565b60008484015250505050565b6000620005bd620005b78462000544565b62000347565b905082815260208101848484011115620005dc57620005db6200053f565b5b620005e98482856200057a565b509392505050565b600082601f830112620006095762000608620002cc565b5b81516200061b848260208601620005a6565b91505092915050565b60008060008060808587031215620006415762000640620002c2565b5b600085015167ffffffffffffffff811115620006625762000661620002c7565b5b62000670878288016200050c565b94505060206200068387828801620003ed565b935050604085015167ffffffffffffffff811115620006a757620006a6620002c7565b5b620006b587828801620005f1565b925050606085015167ffffffffffffffff811115620006d957620006d8620002c7565b5b620006e787828801620005f1565b91505092959194509250565b7f4e487b7100000000000000000000000000000000000000000000000000000000600052603260045260246000fd5b600081519050919050565b7f4e487b7100000000000000000000000000000000000000000000000000000000600052602260045260246000fd5b600060028204905060018216806200077557607f821691505b6020821081036200078b576200078a6200072d565b5b50919050565b60008190508160005260206000209050919050565b60006020601f8301049050919050565b600082821b905092915050565b600060088302620007f57fffffffffffffffffffffffffffffffffffffffffffffffffffffffffffffffff82620007b6565b620008018683620007b6565b95508019841693508086168417925050509392505050565b6000819050919050565b6000620008446200083e620008388462000404565b62000819565b62000404565b9050919050565b6000819050919050565b620008608362000823565b620008786200086f826200084b565b848454620007c3565b825550505050565b600090565b6200088f62000880565b6200089c81848462000855565b505050565b5b81811015620008c457620008b860008262000885565b600181019050620008a2565b5050565b601f8211156200091357620008dd8162000791565b620008e884620007a6565b81016020851015620008f8578190505b620009106200090785620007a6565b830182620008a1565b50505b505050565b600082821c905092915050565b6000620009386000198460080262000918565b1980831691505092915050565b600062000953838362000925565b9150826002028217905092915050565b6200096e8262000722565b67ffffffffffffffff8111156200098a5762000989620002e2565b5b6200099682546200075c565b620009a3828285620008c8565b600060209050601f831160018114620009db5760008415620009c6578287015190505b620009d2858262000945565b86555062000a42565b601f198416620009eb8662000791565b60005b8281101562000a1557848901518255600182019150602085019450602081019050620009ee565b8683101562000a35578489015162000a31601f89168262000925565b8355505b6001600288020188555050505b505050505050565b62000a5581620003bf565b82525050565b600060408201905062000a72600083018562000a4a565b62000a81602083018462000a4a565b9392505050565b600081905092915050565b600062000aa08262000722565b62000aac818562000a88565b935062000abe8185602086016200057a565b80840191505092915050565b600062000ad8828462000a93565b915081905092915050565b6107e98062000af36000396000f3fe608060405234801561001057600080fd5b506004361061009e5760003560e01c806381cc7a451161006657806381cc7a451461015d578063ac1eff681461018f578063c308dd5b146101bf578063dabc4d51146101dd578063eb4961061461020d5761009e565b80632e9868f8146100a3578063439d7275146100c15780634ce39ead146100df578063638480be146100fd5780636389e1071461012d575b600080fd5b6100ab61022b565b6040516100b8919061058b565b60405180910390f35b6100c96102b9565b6040516100d6919061058b565b60405180910390f35b6100e7610347565b6040516100f491906105ee565b60405180910390f35b61011760048036038101906101129190610644565b61036d565b6040516101249190610680565b60405180910390f35b61014760048036038101906101429190610644565b61038c565b6040516101549190610680565b60405180910390f35b61017760048036038101906101729190610644565b6103ab565b6040516101869392919061069b565b60405180910390f35b6101a960048036038101906101a49190610644565b61047d565b6040516101b69190610738565b60405180910390f35b6101c76104b0565b6040516101d491906105ee565b60405180910390f35b6101f760048036038101906101f29190610644565b6104d6565b6040516102049190610680565b60405180910390f35b6102156104f5565b6040516102229190610680565b60405180910390f35b6002805461023890610782565b80601f016020809104026020016040519081016040528092919081815260200182805461026490610782565b80156102b15780601f10610286576101008083540402835291602001916102b1565b820191906000526020600020905b81548152906001019060200180831161029457829003601f168201915b505050505081565b600380546102c690610782565b80601f01602080910402602001604051908101604052809291908181526020018280546102f290610782565b801561033f5780601f106103145761010080835404028352916020019161033f565b820191906000526020600020905b81548152906001019060200180831161032257829003601f168201915b505050505081565b600160009054906101000a900473ffffffffffffffffffffffffffffffffffffffff1681565b6000806000838152602001908152602001600020600201549050919050565b6000806000838152602001908152602001600020600001549050919050565b60076020528060005260406000206000915090508060000160009054906101000a900473ffffffffffffffffffffffffffffffffffffffff16908060010180546103f490610782565b80601f016020809104026020016040519081016040528092919081815260200182805461042090610782565b801561046d5780601f106104425761010080835404028352916020019161046d565b820191906000526020600020905b81548152906001019060200180831161045057829003601f168201915b5050505050908060020154905083565b60066020528060005260406000206000915054906101000a900473ffffffffffffffffffffffffffffffffffffffff1681565b600560009054906101000a900473ffffffffffffffffffffffffffffffffffffffff1681565b6000806000838152602001908152602001600020600101549050919050565b60045481565b600081519050919050565b600082825260208201905092915050565b60005b8381101561053557808201518184015260208101905061051a565b60008484015250505050565b6000601f19601f8301169050919050565b600061055d826104fb565b6105678185610506565b9350610577818560208601610517565b61058081610541565b840191505092915050565b600060208201905081810360008301526105a58184610552565b905092915050565b600073ffffffffffffffffffffffffffffffffffffffff82169050919050565b60006105d8826105ad565b9050919050565b6105e8816105cd565b82525050565b600060208201905061060360008301846105df565b92915050565b600080fd5b6000819050919050565b6106218161060e565b811461062c57600080fd5b50565b60008135905061063e81610618565b92915050565b60006020828403121561065a57610659610609565b5b60006106688482850161062f565b91505092915050565b61067a8161060e565b82525050565b60006020820190506106956000830184610671565b92915050565b60006060820190506106b060008301866105df565b81810360208301526106c28185610552565b90506106d16040830184610671565b949350505050565b6000819050919050565b60006106fe6106f96106f4846105ad565b6106d9565b6105ad565b9050919050565b6000610710826106e3565b9050919050565b600061072282610705565b9050919050565b61073281610717565b82525050565b600060208201905061074d6000830184610729565b92915050565b7f4e487b7100000000000000000000000000000000000000000000000000000000600052602260045260246000fd5b6000600282049050600182168061079a57607f821691505b6020821081036107ad576107ac610753565b5b5091905056fea2646970667358221220dfb555944bbaecc898fa15bb434ffb8a5c3154b18749065165edb189f8a9ed4b64736f6c63430008110033",
  "linkReferences": {},
  "deployedLinkReferences": {}
}