{
  "_format": "hh-sol-artifact-1",
  "contractName": "TransparentUpgradeableProxy",
  "sourceName": "contracts/openzeppelin/contracts/proxy/transparent/TransparentUpgradeableProxy.sol",
  "abi": [
    {
      "inputs": [
        {
          "internalType": "address",
          "name": "_logic",
          "type": "address"
        },
        {
          "internalType": "address",
          "name": "admin_",
          "type": "address"
        },
        {
          "internalType": "bytes",
          "name": "_data",
          "type": "bytes"
        }
      ],
      "stateMutability": "payable",
      "type": "constructor"
    },
    {
      "anonymous": false,
      "inputs": [
        {
          "indexed": false,
          "internalType": "address",
          "name": "previousAdmin",
          "type": "address"
        },
        {
          "indexed": false,
          "internalType": "address",
          "name": "newAdmin",
          "type": "address"
        }
      ],
      "name": "AdminChanged",
      "type": "event"
    },
    {
      "anonymous": false,
      "inputs": [
        {
          "indexed": true,
          "internalType": "address",
          "name": "beacon",
          "type": "address"
        }
      ],
      "name": "BeaconUpgraded",
      "type": "event"
    },
    {
      "anonymous": false,
      "inputs": [
        {
          "indexed": true,
          "internalType": "address",
          "name": "implementation",
          "type": "address"
        }
      ],
      "name": "Upgraded",
      "type": "event"
    },
    {
      "stateMutability": "payable",
      "type": "fallback"
    },
    {
      "inputs": [],
      "name": "admin",
      "outputs": [
        {
          "internalType": "address",
          "name": "admin_",
          "type": "address"
        }
      ],
      "stateMutability": "nonpayable",
      "type": "function"
    },
    {
      "inputs": [
        {
          "internalType": "address",
          "name": "newAdmin",
          "type": "address"
        }
      ],
      "name": "changeAdmin",
      "outputs": [],
      "stateMutability": "nonpayable",
      "type": "function"
    },
    {
      "inputs": [],
      "name": "implementation",
      "outputs": [
        {
          "internalType": "address",
          "name": "implementation_",
          "type": "address"
        }
      ],
      "stateMutability": "nonpayable",
      "type": "function"
    },
    {
      "inputs": [
        {
          "internalType": "address",
          "name": "newImplementation",
          "type": "address"
        }
      ],
      "name": "upgradeTo",
      "outputs": [],
      "stateMutability": "nonpayable",
      "type": "function"
    },
    {
      "inputs": [
        {
          "internalType": "address",
          "name": "newImplementation",
          "type": "address"
        },
        {
          "internalType": "bytes",
          "name": "data",
          "type": "bytes"
        }
      ],
      "name": "upgradeToAndCall",
      "outputs": [],
      "stateMutability": "payable",
      "type": "function"
    },
    {
      "stateMutability": "payable",
      "type": "receive"
    }
  ],
  "bytecode": "0x608060405260405162001a4238038062001a428339818101604052810190620000299190620007ec565b828160017f360894a13ba1a3210667c828492db98dca3e2076cc3735a920a3ca505d382bbd60001c6200005d9190620008a0565b60001b7f360894a13ba1a3210667c828492db98dca3e2076cc3735a920a3ca505d382bbc60001b14620000955762000094620008db565b5b620000a9828260006200012f60201b60201c565b505060017fb53127684a568b3173ae13b9f8a6016e243e63b6e8ee1178d6a717850b5d610460001c620000dd9190620008a0565b60001b7fb53127684a568b3173ae13b9f8a6016e243e63b6e8ee1178d6a717850b5d610360001b14620001155762000114620008db565b5b62000126826200017260201b60201c565b50505062000bf7565b6200014083620001d060201b60201c565b6000825111806200014e5750805b156200016d576200016b83836200022760201b6200034a1760201c565b505b505050565b7f7e644d79422f17c01e4894b5f4f588d331ebfa28653d42ae832dc59e38c9798f620001a36200025d60201b60201c565b82604051620001b49291906200091b565b60405180910390a1620001cd81620002c160201b60201c565b50565b620001e181620003b160201b60201c565b8073ffffffffffffffffffffffffffffffffffffffff167fbc7cd75a20ee27fd9adebab32041f755214dbc6bffa90cc0225b39da2e5c2d3b60405160405180910390a250565b606062000255838360405180606001604052806027815260200162001a1b602791396200048760201b60201c565b905092915050565b6000620002987fb53127684a568b3173ae13b9f8a6016e243e63b6e8ee1178d6a717850b5d610360001b6200056b60201b620003771760201c565b60000160009054906101000a900473ffffffffffffffffffffffffffffffffffffffff16905090565b600073ffffffffffffffffffffffffffffffffffffffff168173ffffffffffffffffffffffffffffffffffffffff160362000333576040517f08c379a00000000000000000000000000000000000000000000000000000000081526004016200032a90620009cf565b60405180910390fd5b806200036d7fb53127684a568b3173ae13b9f8a6016e243e63b6e8ee1178d6a717850b5d610360001b6200056b60201b620003771760201c565b60000160006101000a81548173ffffffffffffffffffffffffffffffffffffffff021916908373ffffffffffffffffffffffffffffffffffffffff16021790555050565b620003c7816200057560201b620003811760201c565b62000409576040517f08c379a0000000000000000000000000000000000000000000000000000000008152600401620004009062000a67565b60405180910390fd5b80620004437f360894a13ba1a3210667c828492db98dca3e2076cc3735a920a3ca505d382bbc60001b6200056b60201b620003771760201c565b60000160006101000a81548173ffffffffffffffffffffffffffffffffffffffff021916908373ffffffffffffffffffffffffffffffffffffffff16021790555050565b60606200049a846200057560201b60201c565b620004dc576040517f08c379a0000000000000000000000000000000000000000000000000000000008152600401620004d39062000aff565b60405180910390fd5b6000808573ffffffffffffffffffffffffffffffffffffffff168560405162000506919062000b6e565b600060405180830381855af49150503d806000811462000543576040519150601f19603f3d011682016040523d82523d6000602084013e62000548565b606091505b5091509150620005608282866200058860201b60201c565b925050509392505050565b6000819050919050565b600080823b905060008111915050919050565b606083156200059a57829050620005ed565b600083511115620005ae5782518084602001fd5b816040517f08c379a0000000000000000000000000000000000000000000000000000000008152600401620005e4919062000bd3565b60405180910390fd5b9392505050565b6000604051905090565b600080fd5b600080fd5b600073ffffffffffffffffffffffffffffffffffffffff82169050919050565b6000620006358262000608565b9050919050565b620006478162000628565b81146200065357600080fd5b50565b60008151905062000667816200063c565b92915050565b600080fd5b600080fd5b6000601f19601f8301169050919050565b7f4e487b7100000000000000000000000000000000000000000000000000000000600052604160045260246000fd5b620006c28262000677565b810181811067ffffffffffffffff82111715620006e457620006e362000688565b5b80604052505050565b6000620006f9620005f4565b9050620007078282620006b7565b919050565b600067ffffffffffffffff8211156200072a576200072962000688565b5b620007358262000677565b9050602081019050919050565b60005b838110156200076257808201518184015260208101905062000745565b60008484015250505050565b6000620007856200077f846200070c565b620006ed565b905082815260208101848484011115620007a457620007a362000672565b5b620007b184828562000742565b509392505050565b600082601f830112620007d157620007d06200066d565b5b8151620007e38482602086016200076e565b91505092915050565b600080600060608486031215620008085762000807620005fe565b5b6000620008188682870162000656565b93505060206200082b8682870162000656565b925050604084015167ffffffffffffffff8111156200084f576200084e62000603565b5b6200085d86828701620007b9565b9150509250925092565b6000819050919050565b7f4e487b7100000000000000000000000000000000000000000000000000000000600052601160045260246000fd5b6000620008ad8262000867565b9150620008ba8362000867565b9250828203905081811115620008d557620008d462000871565b5b92915050565b7f4e487b7100000000000000000000000000000000000000000000000000000000600052600160045260246000fd5b620009158162000628565b82525050565b60006040820190506200093260008301856200090a565b6200094160208301846200090a565b9392505050565b600082825260208201905092915050565b7f455243313936373a206e65772061646d696e20697320746865207a65726f206160008201527f6464726573730000000000000000000000000000000000000000000000000000602082015250565b6000620009b760268362000948565b9150620009c48262000959565b604082019050919050565b60006020820190508181036000830152620009ea81620009a8565b9050919050565b7f455243313936373a206e657720696d706c656d656e746174696f6e206973206e60008201527f6f74206120636f6e747261637400000000000000000000000000000000000000602082015250565b600062000a4f602d8362000948565b915062000a5c82620009f1565b604082019050919050565b6000602082019050818103600083015262000a828162000a40565b9050919050565b7f416464726573733a2064656c65676174652063616c6c20746f206e6f6e2d636f60008201527f6e74726163740000000000000000000000000000000000000000000000000000602082015250565b600062000ae760268362000948565b915062000af48262000a89565b604082019050919050565b6000602082019050818103600083015262000b1a8162000ad8565b9050919050565b600081519050919050565b600081905092915050565b600062000b448262000b21565b62000b50818562000b2c565b935062000b6281856020860162000742565b80840191505092915050565b600062000b7c828462000b37565b915081905092915050565b600081519050919050565b600062000b9f8262000b87565b62000bab818562000948565b935062000bbd81856020860162000742565b62000bc88162000677565b840191505092915050565b6000602082019050818103600083015262000bef818462000b92565b905092915050565b610e148062000c076000396000f3fe60806040526004361061004e5760003560e01c80633659cfe6146100675780634f1ef286146100905780635c60da1b146100ac5780638f283970146100d7578063f851a440146101005761005d565b3661005d5761005b61012b565b005b61006561012b565b005b34801561007357600080fd5b5061008e600480360381019061008991906108f4565b610145565b005b6100aa60048036038101906100a59190610986565b6101ab565b005b3480156100b857600080fd5b506100c1610248565b6040516100ce91906109f5565b60405180910390f35b3480156100e357600080fd5b506100fe60048036038101906100f991906108f4565b61029f565b005b34801561010c57600080fd5b506101156102f3565b60405161012291906109f5565b60405180910390f35b610133610394565b61014361013e610413565b610422565b565b61014d610448565b73ffffffffffffffffffffffffffffffffffffffff163373ffffffffffffffffffffffffffffffffffffffff160361019f5761019a8160405180602001604052806000815250600061049f565b6101a8565b6101a761012b565b5b50565b6101b3610448565b73ffffffffffffffffffffffffffffffffffffffff163373ffffffffffffffffffffffffffffffffffffffff160361023a576102358383838080601f016020809104026020016040519081016040528093929190818152602001838380828437600081840152601f19601f82011690508083019250505050505050600161049f565b610243565b61024261012b565b5b505050565b6000610252610448565b73ffffffffffffffffffffffffffffffffffffffff163373ffffffffffffffffffffffffffffffffffffffff16036102935761028c610413565b905061029c565b61029b61012b565b5b90565b6102a7610448565b73ffffffffffffffffffffffffffffffffffffffff163373ffffffffffffffffffffffffffffffffffffffff16036102e7576102e2816104cb565b6102f0565b6102ef61012b565b5b50565b60006102fd610448565b73ffffffffffffffffffffffffffffffffffffffff163373ffffffffffffffffffffffffffffffffffffffff160361033e57610337610448565b9050610347565b61034661012b565b5b90565b606061036f8383604051806060016040528060278152602001610db860279139610517565b905092915050565b6000819050919050565b600080823b905060008111915050919050565b61039c610448565b73ffffffffffffffffffffffffffffffffffffffff163373ffffffffffffffffffffffffffffffffffffffff1603610409576040517f08c379a000000000000000000000000000000000000000000000000000000000815260040161040090610ab9565b60405180910390fd5b6104116105e4565b565b600061041d6105e6565b905090565b3660008037600080366000845af43d6000803e8060008114610443573d6000f35b3d6000fd5b60006104767fb53127684a568b3173ae13b9f8a6016e243e63b6e8ee1178d6a717850b5d610360001b610377565b60000160009054906101000a900473ffffffffffffffffffffffffffffffffffffffff16905090565b6104a88361063d565b6000825111806104b55750805b156104c6576104c4838361034a565b505b505050565b7f7e644d79422f17c01e4894b5f4f588d331ebfa28653d42ae832dc59e38c9798f6104f4610448565b82604051610503929190610ad9565b60405180910390a16105148161068c565b50565b606061052284610381565b610561576040517f08c379a000000000000000000000000000000000000000000000000000000000815260040161055890610b74565b60405180910390fd5b6000808573ffffffffffffffffffffffffffffffffffffffff16856040516105899190610c05565b600060405180830381855af49150503d80600081146105c4576040519150601f19603f3d011682016040523d82523d6000602084013e6105c9565b606091505b50915091506105d982828661076c565b925050509392505050565b565b60006106147f360894a13ba1a3210667c828492db98dca3e2076cc3735a920a3ca505d382bbc60001b610377565b60000160009054906101000a900473ffffffffffffffffffffffffffffffffffffffff16905090565b610646816107d3565b8073ffffffffffffffffffffffffffffffffffffffff167fbc7cd75a20ee27fd9adebab32041f755214dbc6bffa90cc0225b39da2e5c2d3b60405160405180910390a250565b600073ffffffffffffffffffffffffffffffffffffffff168173ffffffffffffffffffffffffffffffffffffffff16036106fb576040517f08c379a00000000000000000000000000000000000000000000000000000000081526004016106f290610c8e565b60405180910390fd5b806107287fb53127684a568b3173ae13b9f8a6016e243e63b6e8ee1178d6a717850b5d610360001b610377565b60000160006101000a81548173ffffffffffffffffffffffffffffffffffffffff021916908373ffffffffffffffffffffffffffffffffffffffff16021790555050565b6060831561077c578290506107cc565b60008351111561078f5782518084602001fd5b816040517f08c379a00000000000000000000000000000000000000000000000000000000081526004016107c39190610d03565b60405180910390fd5b9392505050565b6107dc81610381565b61081b576040517f08c379a000000000000000000000000000000000000000000000000000000000815260040161081290610d97565b60405180910390fd5b806108487f360894a13ba1a3210667c828492db98dca3e2076cc3735a920a3ca505d382bbc60001b610377565b60000160006101000a81548173ffffffffffffffffffffffffffffffffffffffff021916908373ffffffffffffffffffffffffffffffffffffffff16021790555050565b600080fd5b600080fd5b600073ffffffffffffffffffffffffffffffffffffffff82169050919050565b60006108c182610896565b9050919050565b6108d1816108b6565b81146108dc57600080fd5b50565b6000813590506108ee816108c8565b92915050565b60006020828403121561090a5761090961088c565b5b6000610918848285016108df565b91505092915050565b600080fd5b600080fd5b600080fd5b60008083601f84011261094657610945610921565b5b8235905067ffffffffffffffff81111561096357610962610926565b5b60208301915083600182028301111561097f5761097e61092b565b5b9250929050565b60008060006040848603121561099f5761099e61088c565b5b60006109ad868287016108df565b935050602084013567ffffffffffffffff8111156109ce576109cd610891565b5b6109da86828701610930565b92509250509250925092565b6109ef816108b6565b82525050565b6000602082019050610a0a60008301846109e6565b92915050565b600082825260208201905092915050565b7f5472616e73706172656e745570677261646561626c6550726f78793a2061646d60008201527f696e2063616e6e6f742066616c6c6261636b20746f2070726f7879207461726760208201527f6574000000000000000000000000000000000000000000000000000000000000604082015250565b6000610aa3604283610a10565b9150610aae82610a21565b606082019050919050565b60006020820190508181036000830152610ad281610a96565b9050919050565b6000604082019050610aee60008301856109e6565b610afb60208301846109e6565b9392505050565b7f416464726573733a2064656c65676174652063616c6c20746f206e6f6e2d636f60008201527f6e74726163740000000000000000000000000000000000000000000000000000602082015250565b6000610b5e602683610a10565b9150610b6982610b02565b604082019050919050565b60006020820190508181036000830152610b8d81610b51565b9050919050565b600081519050919050565b600081905092915050565b60005b83811015610bc8578082015181840152602081019050610bad565b60008484015250505050565b6000610bdf82610b94565b610be98185610b9f565b9350610bf9818560208601610baa565b80840191505092915050565b6000610c118284610bd4565b915081905092915050565b7f455243313936373a206e65772061646d696e20697320746865207a65726f206160008201527f6464726573730000000000000000000000000000000000000000000000000000602082015250565b6000610c78602683610a10565b9150610c8382610c1c565b604082019050919050565b60006020820190508181036000830152610ca781610c6b565b9050919050565b600081519050919050565b6000601f19601f8301169050919050565b6000610cd582610cae565b610cdf8185610a10565b9350610cef818560208601610baa565b610cf881610cb9565b840191505092915050565b60006020820190508181036000830152610d1d8184610cca565b905092915050565b7f455243313936373a206e657720696d706c656d656e746174696f6e206973206e60008201527f6f74206120636f6e747261637400000000000000000000000000000000000000602082015250565b6000610d81602d83610a10565b9150610d8c82610d25565b604082019050919050565b60006020820190508181036000830152610db081610d74565b905091905056fe416464726573733a206c6f772d6c6576656c2064656c65676174652063616c6c206661696c6564a26469706673582212205339ba1bcf173941c0ef675adcc46c3b4167ea334c7709ae103e4fea6b20ac3f64736f6c63430008110033416464726573733a206c6f772d6c6576656c2064656c65676174652063616c6c206661696c6564",
  "linkReferences": {},
  "deployedLinkReferences": {}
}